:100000000C942A000C9447000C9447000C94470071
:100010000C9447000C9447000C9447000C94470044
:100020000C9447000C9447000C9447000C9411204A
:100030000C9447000C94D7240C940A250C943D256D
:100040000C9447000C9447000C9447000C94470014
:100050000C94470011241FBECFE5D8E0DEBFCDBF12
:1000600014E0A0E6B0E0E8EFFBE402C005900D92DA
:10007000AC37B107D9F714E0ACE7B4E001C01D928A
:10008000AC38B107E1F70E94E1050C94FA250C9415
:100090000000EF92FF920F931F937B018C0120E0F1
:1000A00030E040E05FE40E94490388238CF0C801FF
:1000B000B70120E030E040E05FE40E94C1010E940F
:1000C000A9039B01AC01205030404040504806C07D
:1000D000C801B7010E94A9039B01AC01B901CA0183
:1000E0001F910F91FF90EF900895A0E0B0E0EBE733
:1000F000F0E00C94B125DC012B01FA019C919230C7
:1001000008F439C1EB018881823008F433C194309E
:1001100069F4843009F02FC111969C91119789815F
:10012000981709F428C1A4E7B4E025C1843009F484
:1001300021C18230A9F4923009F01DC19A01AD01AC
:1001400088E0EA010990AE01E90109929E0181501F
:10015000C1F7E201898111969C918923818308C1AD
:10016000923009F407C112962D903C901397EB0141
:100170008A819B811496AD90BD90CD90DC901797AD
:10018000EC80FD800E811F819101281B390BB90184
:1001900037FF04C066277727621B730B6032710537
:1001A0000CF061C0121613066CF537014801062EDB
:1001B00004C096948794779467940A94D2F721E0C8
:1001C00030E040E050E004C0220F331F441F551FB1
:1001D0006A95D2F721503040404050402E213F21B7
:1001E00040235123211531054105510521F021E01E
:1001F00030E040E050E079018A01E628F72808293C
:1002000019293CC0232BD1F1260E371E350146019A
:10021000062E04C096948794779467940A94D2F734
:1002200021E030E040E050E004C0220F331F441FC3
:10023000551F6A95D2F721503040404050402A2146
:100240003B214C215D21211531054105510521F04E
:1002500021E030E040E050E059016A01A628B728CB
:10026000C828D9280BC0821593052CF01C01AA249C
:10027000BB24650103C0EE24FF24870111969C91E5
:10028000D20111968C91981709F445C0992339F041
:10029000A80197012A193B094C095D0906C0A6016E
:1002A00095012E193F09400B510B57FD08C01182D3
:1002B0003382228224833583468357831DC081E0A5
:1002C00081833382228288279927DC01821B930B4A
:1002D000A40BB50B84839583A683B7830DC0220F2F
:1002E000331F441F551F24833583468357838281E0
:1002F000938101979383828324813581468157813D
:10030000DA01C9010197A109B1098F5F9F4FAF4F72
:10031000BF4328F30BC0918333822282EA0CFB1C7B
:100320000C1D1D1DE482F5820683178383E0808304
:10033000248135814681578157FF1AC0C901AA27F8
:1003400097FDA095BA2F81709070A070B0705695EF
:10035000479537952795822B932BA42BB52B848318
:100360009583A683B7838281938101969383828349
:10037000DF0101C0D201CD01CDB7DEB7E2E10C94BF
:10038000CD25A0E2B0E0E7ECF1E00C94BD25698357
:100390007A838B839C832D833E834F835887E9E048
:1003A000EE2EF12CEC0EFD1ECE010196B7010E943F
:1003B000D2048E010F5E1F4FCE010596B8010E9438
:1003C000D2048A8991E089278A8BC701B801AE01DE
:1003D000475E5F4F0E9475000E94FD03A096E6E015
:1003E0000C94D925A0E2B0E0E8EFF1E00C94BD2533
:1003F00069837A838B839C832D833E834F835887C5
:10040000F9E0EF2EF12CEC0EFD1ECE010196B701A6
:100410000E94D2048E010F5E1F4FCE010596B801D7
:100420000E94D204C701B801AE01475E5F4F0E942F
:1004300075000E94FD03A096E6E00C94D925A0E289
:10044000B0E0E5E2F2E00C94B12569837A838B8316
:100450009C832D833E834F835887CE010196BE0136
:10046000675F7F4F0E94D204CE010596BE016F5E8A
:100470007F4F0E94D2049985923088F0898982301A
:10048000C8F0943019F4823051F404C0843029F457
:10049000923081F484E794E0C6C0923049F420E0C1
:1004A0009A858A89981321E02A87CE010996BBC0D4
:1004B000823049F420E09A858A89981321E02A8BBA
:1004C000CE014196B0C02D843E844F8458886D88FB
:1004D0007E888F88988CEE24FF248701AA24BB2471
:1004E000650140E050E060E070E0E0E0F0E0C10174
:1004F00081709070892BE9F0E60CF71C081D191D1E
:100500009A01AB012A0D3B1D4C1D5D1D80E090E062
:10051000A0E0B0E0E614F7040805190520F481E036
:1005200090E0A0E0B0E0BA01A901480F591F6A1F8E
:100530007B1FAA0CBB1CCC1CDD1C97FE08C081E0F5
:1005400090E0A0E0B0E0A82AB92ACA2ADB2A3196B6
:10055000E032F10549F0660C771C881C991C569412
:10056000479437942794C3CFFA85EA892B893C892D
:100570008B859C85280F391F2E5F3F4F17C0CA01FE
:1005800081709070892B61F016950795F794E79428
:1005900080E090E0A0E0B0E8E82AF92A0A2B1B2BC3
:1005A00076956795579547952F5F3F4F77FDE7CF36
:1005B0000CC0440F551F661F771F17FD4160EE0CDE
:1005C000FF1C001F111F21503040403090E05907A0
:1005D00090E0690790E4790760F32B8F3C8FDB0193
:1005E000CA018F779070A070B07080349105A1051A
:1005F000B10561F447FD0AC0E114F10401051105DC
:1006000029F0405C5F4F6F4F7F4F40781A8EFE1786
:1006100011F081E08A8F4D8F5E8F6F8F78A383E01A
:10062000898FCE0149960E94FD03A096E2E10C94C9
:10063000CD25A8E1B0E0EFE1F3E00C94BD2569839E
:100640007A838B839C832D833E834F83588789E0F5
:10065000E82EF12CEC0EFD1ECE010196B7010E9492
:10066000D2048E010F5E1F4FCE010596B8010E9485
:10067000D2048985823040F08989823028F0C70110
:10068000B8010E944A0501C08FEF6896E6E00C941D
:10069000D925A8E1B0E0EFE4F3E00C94BD2569832F
:1006A0007A838B839C832D833E834F83588789E095
:1006B000E82EF12CEC0EFD1ECE010196B7010E9432
:1006C000D2048E010F5E1F4FCE010596B8010E9425
:1006D000D2048985823040F08989823028F0C701B0
:1006E000B8010E944A0501C08FEF6896E6E00C94BD
:1006F000D925A8E1B0E0EFE7F3E00C94BD256983CC
:100700007A838B839C832D833E834F83588789E034
:10071000E82EF12CEC0EFD1ECE010196B7010E94D1
:10072000D2048E010F5E1F4FCE010596B8010E94C4
:10073000D2048985823040F08989823028F0C7014F
:10074000B8010E944A0501C081E06896E6E00C9479
:10075000D925ACE0B0E0EFEAF3E00C94C125698361
:100760007A838B839C83CE010196BE016B5F7F4FA2
:100770000E94D2048D81823061F1823050F1843048
:1007800021F48E81882351F12EC02F81388537FDC9
:1007900020C06E812F3131051CF06623F9F023C093
:1007A0008EE190E0821B930B29853A854B855C8511
:1007B00004C056954795379527958A95D2F76623B5
:1007C000B1F050954095309521953F4F4F4F5F4F79
:1007D0000EC020E030E040E050E009C02FEF3FEFD6
:1007E0004FEF5FE704C020E030E040E050E8B9019F
:1007F000CA012C96E2E00C94DD25DF92EF92FF9285
:100800000F931F93FC01E480F58006811781D1804E
:100810008081823048F480E090E0A0E1B0E0E82AF6
:10082000F92A0A2B1B2BA5C0843009F49FC0823003
:1008300021F4EE24FF24870105C0E114F104010531
:10084000110519F4E0E0F0E096C0628173819FEF3A
:10085000623879070CF05BC022E83FEF261B370BAC
:100860002A3131052CF020E030E040E050E02AC091
:10087000B801A701022E04C0769567955795479554
:100880000A94D2F781E090E0A0E0B0E004C0880FC5
:10089000991FAA1FBB1F2A95D2F70197A109B10979
:1008A0008E219F21A023B1230097A105B10521F03E
:1008B00081E090E0A0E0B0E09A01AB01282B392B59
:1008C0004A2B5B2BDA01C9018F779070A070B07052
:1008D00080349105A105B10539F427FF09C0205CDA
:1008E0003F4F4F4F5F4F04C0215C3F4F4F4F5F4F13
:1008F000E0E0F0E02030A0E03A07A0E04A07A0E402
:100900005A0710F0E1E0F0E079018A0127C0603871
:10091000710564F5FB01E158FF4FD801C7018F77DE
:100920009070A070B07080349105A105B10539F4C4
:10093000E7FE0DC080E490E0A0E0B0E004C08FE3EB
:1009400090E0A0E0B0E0E80EF91E0A1F1B1F17FFA1
:1009500005C016950795F794E794319687E01695AC
:100960000795F794E7948A95D1F705C0EE24FF2404
:100970008701EFEFF0E06E2F679566276795902F60
:100980009F77D794DD24D7948E2F8695492F462BB9
:10099000582F5D29B701CA011F910F91FF90EF9069
:1009A000DF900895FC01DB01408151812281622F9B
:1009B0006F7770E0221F2227221F9381892F880FD3
:1009C000822B282F30E0991F9927991F11969C930D
:1009D000119721153105A9F54115510561057105DD
:1009E00011F482E037C082E89FEF13969C938E93B8
:1009F00012979A01AB0167E0220F331F441F551F66
:100A00006A95D1F783E08C930DC0220F331F441FEA
:100A1000551F12968D919C911397019713969C9355
:100A20008E931297203080E0380780E0480780E4FA
:100A3000580758F314962D933D934D935C93179755
:100A400008952F3F310579F4411551056105710570
:100A500019F484E08C93089564FF03C081E08C93C3
:100A600012C01C9210C02F57304013963C932E9307
:100A7000129783E08C9387E0440F551F661F771F02
:100A80008A95D1F7706414964D935D936D937C9322
:100A9000179708951F93DC01FB019C91923008F495
:100AA00047C08081823008F443C0943051F41196DD
:100AB0001C91843099F58181682F70E0611B710968
:100AC0003FC0843021F0923031F48230B9F181811D
:100AD000882389F12DC011961C9111978230F1F075
:100AE00081811817D9F412962D913C911397828128
:100AF00093818217930794F028173907BCF0149656
:100B00008D919D910D90BC91A02D248135814681C0
:100B10005781281739074A075B0718F4112341F05A
:100B20000AC082179307A407B50740F4112319F0F0
:100B300061E070E005C06FEF7FEF02C060E070E041
:100B4000CB011F910895DF93CF93CDB7DEB72897E0
:100B50000FB6F894DEBF0FBECDBF9A8389837C8326
:100B60006B835E834D832D813E8189819A81B9019A
:100B70000E94E8250097C1F48D819E819C012F5E23
:100B80003F4F8B819C81B9010E94E825009761F459
:100B90008B819C810E94F1258430910529F481E0AC
:100BA00090E098878F8302C018861F828F81988576
:100BB00028960FB6F894DEBF0FBECDBFCF91DF9160
:100BC00008950F931F93DF93CF93CDB7DEB7C35D27
:100BD000D1400FB6F894DEBF0FBECDBF0E94941770
:100BE0000E948C220E94B81F0E94762080E00E9402
:100BF0005A200E94611BFE01E959FF4F8FEF80834D
:100C0000FE01EB59FF4F83E090E091838083CE019A
:100C100088599F4F2CEDFC01DF01322F1D923A9530
:100C2000E9F7CE0188599F4FC45ADE4F99838883D4
:100C3000CC55D140C45ADE4FA881B981CC55D140A2
:100C4000C25ADE4FB983A883CE55D140E8E9F3E01C
:100C5000C05ADE4FF983E883C056D140F6E0CE5942
:100C6000DE4FF883C256D140C05ADE4FA881B98109
:100C7000C056D1400C90C05ADE4FE881F981C05671
:100C8000D1403196C05ADE4FF983E883C056D14037
:100C9000C25ADE4FA881B981CE55D1400C92C25ABA
:100CA000DE4FE881F981CE55D1403196C25ADE4FF0
:100CB000F983E883CE55D140CE59DE4FF881C25634
:100CC000D140F150CE59DE4FF883C256D140CE59B3
:100CD000DE4F2881C256D140222331F68BE0C45A20
:100CE000DE4FE881F981CC55D1403696DF01282FBF
:100CF0001D922A95E9F7CE0188599F4FDC01519644
:100D0000CD59DE4FB983A883C356D140E9EAF3E059
:100D1000CB59DE4FF983E883C556D140F5E0C95978
:100D2000DE4FF883C756D140CB59DE4FA881B98139
:100D3000C556D1400C90CB59DE4FE881F981C5569C
:100D4000D1403196CB59DE4FF983E883C556D14067
:100D5000CD59DE4FA881B981C356D1400C92CD59EF
:100D6000DE4FE881F981C356D1403196CD59DE4F2F
:100D7000F983E883C356D140C959DE4FF881C7567D
:100D8000D140F150C959DE4FF883C756D140C959F7
:100D9000DE4F2881C756D140222331F6CE01885933
:100DA0009F4FC859DE4F99838883C856D140C85990
:100DB000DE4FA881B981C856D1405696C659DE4F3C
:100DC000B983A883CA56D140EEEAF3E0C459DE4F96
:100DD000F983E883CC56D140F6E0C259DE4FF88360
:100DE000CE56D140C459DE4FA881B981CC56D140EE
:100DF0000C90C459DE4FE881F981CC56D140319630
:100E0000C459DE4FF983E883CC56D140C659DE4F32
:100E1000A881B981CA56D1400C92C659DE4FE881EB
:100E2000F981CA56D1403196C659DE4FF983E8831D
:100E3000CA56D140C259DE4FF881CE56D140F1504A
:100E4000C259DE4FF883CE56D140C259DE4F2881B9
:100E5000CE56D140222331F68BE0C859DE4FE881CF
:100E6000F981C856D1407C96DF01282F1D922A9522
:100E7000E9F7CE0188599F4FDC019796C159DE4FA3
:100E8000B983A883CF56D140EFEBF3E0CF58DE4FC4
:100E9000F983E883C157D140F5E0CD58DE4FF883A0
:100EA000C357D140CF58DE4FA881B981C157D14037
:100EB0000C90CF58DE4FE881F981C157D14031966F
:100EC000CF58DE4FF983E883C157D140C159DE4F77
:100ED000A881B981CF56D1400C92C159DE4FE8812B
:100EE000F981CF56D1403196C159DE4FF983E8835D
:100EF000CF56D140CD58DE4FF881C357D140F15085
:100F0000CD58DE4FF883C357D140CD58DE4F2881EE
:100F1000C357D140222331F6CE0188599F4FCC5878
:100F2000DE4F99838883C457D140CC58DE4FA881C7
:100F3000B981C457D1409C96CA58DE4FB983A88363
:100F4000C657D140E4ECF3E0C858DE4FF983E8839C
:100F5000C857D140F6E0C658DE4FF883CA57D14093
:100F6000C858DE4FA881B981C857D1400C90C858E5
:100F7000DE4FE881F981C857D1403196C858DE4F1D
:100F8000F983E883C857D140CA58DE4FA881B98198
:100F9000C657D1400C92CA58DE4FE881F981C65736
:100FA000D1403196CA58DE4FF983E883C657D14005
:100FB000C658DE4FF881CA57D140F150C658DE4FAF
:100FC000F883CA57D140C658DE4F2881CA57D1404E
:100FD000222331F68BE0CC58DE4FE881F981C457EB
:100FE000D140F296DF01282F1D922A95E9F7CE0114
:100FF00088599F4FDC01DD96C558DE4FB983A88321
:10100000CB57D140E5EDF3E0C358DE4FF983E883D9
:10101000CD57D140F5E0C158DE4FF883CF57D140CE
:10102000C358DE4FA881B981CD57D1400C90C35829
:10103000DE4FE881F981CD57D1403196C358DE4F5C
:10104000F983E883CD57D140C558DE4FA881B981D7
:10105000CB57D1400C92C558DE4FE881F981CB5770
:10106000D1403196C558DE4FF983E883CB57D14044
:10107000C158DE4FF881CF57D140F150C158DE4FF3
:10108000F883CF57D140C158DE4F2881CF57D14088
:10109000222331F6CE0188599F4FDC01AE5BBF4F52
:1010A000C058DE4FB983A883C058D140C058DE4F26
:1010B000E881F981C058D140CE57DE4FF983E883EB
:1010C000C258D1402AED33E0CC57DE4F3983288314
:1010D000C458D14036E0CA57DE4F3883C658D14095
:1010E000CC57DE4FA881B981C458D1400C90CC5761
:1010F000DE4FE881F981C458D1403196CC57DE4F9C
:10110000F983E883C458D140CE57DE4FA881B98116
:10111000C258D1400C92CE57DE4FE881F981C258B7
:10112000D1403196CE57DE4FF983E883C258D14083
:10113000CA57DE4FF881C658D140F150CA57DE4F2A
:10114000F883C658D140CA57DE4F2881C658D140CF
:10115000222331F68BE0C058DE4FE881F981C05878
:10116000D1403696DF01282F1D922A95E9F7CE014E
:1011700088599F4F8D5A9F4FC957DE4F9983888357
:10118000C758D1408BEE93E0C757DE4F99838883D1
:10119000C958D14095E0C557DE4F9883CB58D14010
:1011A000C757DE4FA881B981C958D1400C90C757A5
:1011B000DE4FE881F981C958D1403196C757DE4FDB
:1011C000F983E883C958D140C957DE4FA881B98156
:1011D000C758D1400C92C957DE4FE881F981C758F2
:1011E000D1403196C957DE4FF983E883C758D140C3
:1011F000C557DE4FF881CB58D140F150C557DE4F6F
:10120000F883CB58D140C557DE4F2881CB58D14009
:10121000222331F6CE0188599F4FDC01A85ABF4FD7
:10122000C457DE4FB983A883CC58D140C457DE4F92
:10123000E881F981CC58D140C257DE4FF983E88369
:10124000CE58D14020EF33E0C057DE4F398328839A
:10125000C059D14036E0CE56DE4F3883C259D14016
:10126000C057DE4FA881B981C059D1400C90C057FA
:10127000DE4FE881F981C059D1403196C057DE4F29
:10128000F983E883C059D140C257DE4FA881B981A4
:10129000CE58D1400C92C257DE4FE881F981CE582A
:1012A000D1403196C257DE4FF983E883CE58D14002
:1012B000CE56DE4FF881C259D140F150CE56DE4FA6
:1012C000F883C259D140CE56DE4F2881C259D14051
:1012D000222331F68BE0C457DE4FE881F981CC58E8
:1012E000D1403696DF01282F1D922A95E9F7CE01CD
:1012F00088599F4F87599F4FCD56DE4F99838883DA
:10130000C359D14081E094E0CB56DE4F9983888366
:10131000C559D14095E0C956DE4F9883C759D14091
:10132000CB56DE4FA881B981C559D1400C90CB5620
:10133000DE4FE881F981C559D1403196CB56DE4F59
:10134000F983E883C559D140CD56DE4FA881B981D4
:10135000C359D1400C92CD56DE4FE881F981C35973
:10136000D1403196CD56DE4FF983E883C359D14041
:10137000C956DE4FF881C759D140F150C956DE4FEA
:10138000F883C759D140C956DE4F2881C759D1408B
:10139000222331F6CE0188599F4FDC01A259BF4F5D
:1013A000C856DE4FB983A883C859D140C856DE4F0E
:1013B000E881F981C859D140C656DE4FF983E883E8
:1013C000CA59D14026E034E0C456DE4F3983288321
:1013D000CC59D14036E0C256DE4F3883CE59D14089
:1013E000C456DE4FA881B981CC59D1400C90C45667
:1013F000DE4FE881F981CC59D1403196C456DE4F99
:10140000F983E883CC59D140C656DE4FA881B98113
:10141000CA59D1400C92C656DE4FE881F981CA59AB
:10142000D1403196C656DE4FF983E883CA59D14080
:10143000C256DE4FF881CE59D140F150C256DE4F30
:10144000F883CE59D140C256DE4F2881CE59D140C3
:10145000222331F68BE0C856DE4FE881F981C85966
:10146000D1403696DF01282F1D922A95E9F7CE014B
:1014700088599F4F81589F4FC156DE4F998388836B
:10148000CF59D14087E194E0CF55DE4F99838883CF
:10149000C15AD14095E0CD55DE4F9883C35AD14013
:1014A000CF55DE4FA881B981C15AD1400C90CF559C
:1014B000DE4FE881F981C15AD1403196CF55DE4FD8
:1014C000F983E883C15AD140C156DE4FA881B98162
:1014D000CF59D1400C92C156DE4FE881F981CF59E6
:1014E000D1403196C156DE4FF983E883CF59D140C0
:1014F000CD55DE4FF881C35AD140F150CD55DE4F66
:10150000F883C35AD140CD55DE4F2881C35AD1400C
:10151000222331F6CE0188599F4FDC01AC57BF4FD3
:10152000CC55DE4FB983A883C45AD140CC55DE4F89
:10153000E881F981C45AD140CA55DE4FF983E88366
:10154000C65AD1402CE134E0C855DE4F3983288398
:10155000C85AD14036E0C655DE4F3883CA5AD1400A
:10156000C855DE4FA881B981C85AD1400C90C855E2
:10157000DE4FE881F981C85AD1403196C855DE4F17
:10158000F983E883C85AD140CA55DE4FA881B98192
:10159000C65AD1400C92CA55DE4FE881F981C65A2D
:1015A000D1403196CA55DE4FF983E883C65AD140FF
:1015B000C655DE4FF881CA5AD140F150C655DE4FAC
:1015C000F883CA5AD140C655DE4F2881CA5AD14045
:1015D000222331F68BE0CC55DE4FE881F981C45AE5
:1015E000D1403696DF01282F1D922A95E9F7CE01CA
:1015F00088599F4F8B569F4FC555DE4F99838883DF
:10160000CB5AD1408DE294E0C355DE4F9983888355
:10161000CD5AD14095E0C155DE4F9883CF5AD14085
:10162000C355DE4FA881B981CD5AD1400C90C35526
:10163000DE4FE881F981CD5AD1403196C355DE4F56
:10164000F983E883CD5AD140C555DE4FA881B981D1
:10165000CB5AD1400C92C555DE4FE881F981CB5A67
:10166000D1403196C555DE4FF983E883CB5AD1403E
:10167000C155DE4FF881CF5AD140F150C155DE4FF0
:10168000F883CF5AD140C155DE4F2881CF5AD1407F
:10169000222331F6CE0188599F4FDC01A656BF4F59
:1016A000C055DE4FB983A883C05BD140C055DE4F23
:1016B000E881F981C05BD140CE54DE4FF983E883E5
:1016C000C25BD14022E334E0CC54DE4F398328831F
:1016D000C45BD14036E0CA54DE4F3883C65BD1408C
:1016E000CC54DE4FA881B981C45BD1400C90CC545E
:1016F000DE4FE881F981C45BD1403196CC54DE4F96
:10170000F983E883C45BD140CE54DE4FA881B98110
:10171000C25BD1400C92CE54DE4FE881F981C25BAE
:10172000D1403196CE54DE4FF983E883C25BD1407D
:10173000CA54DE4FF881C65BD140F150CA54DE4F27
:10174000F883C65BD140CA54DE4F2881C65BD140C6
:10175000222331F68BE0C055DE4FE881F981C05B72
:10176000D1403696DF01282F1D922A95E9F7CE0148
:1017700088599F4F85559F4FC954DE4F9983888361
:10178000C75BD14083E494E0C754DE4F99838883DC
:10179000C95BD14095E0C554DE4F9883CB5BD14007
:1017A000C754DE4FA881B981C95BD1400C90C754A2
:1017B000DE4FE881F981C95BD1403196C754DE4FD5
:1017C000F983E883C95BD140C954DE4FA881B98150
:1017D000C75BD1400C92C954DE4FE881F981C75BE9
:1017E000D1403196C954DE4FF983E883C75BD140BD
:1017F000C554DE4FF881CB5BD140F150C554DE4F6C
:10180000F883CB5BD140C554DE4F2881CB5BD14000
:10181000222331F6CE0188599F4FDC01A055BF4FDE
:10182000C454DE4FB983A883CC5BD140C454DE4F8F
:10183000E881F981CC5BD140C254DE4FF983E88363
:10184000CE5BD14028E434E0C054DE4F3983288396
:10185000C05CD14036E0CE53DE4F3883C25CD1400D
:10186000C054DE4FA881B981C05CD1400C90C054F7
:10187000DE4FE881F981C05CD1403196C054DE4F23
:10188000F983E883C05CD140C254DE4FA881B9819E
:10189000CE5BD1400C92C254DE4FE881F981CE5B21
:1018A000D1403196C254DE4FF983E883CE5BD140FC
:1018B000CE53DE4FF881C25CD140F150CE53DE4FA3
:1018C000F883C25CD140CE53DE4F2881C25CD14048
:1018D000222331F68BE0C454DE4FE881F981CC5BE2
:1018E000D1403696DF01282F1D922A95E9F7CE01C7
:1018F00088599F4F8F539F4FCD53DE4F99838883D5
:10190000C35CD14089E594E0CB53DE4F9983888353
:10191000C55CD14095E0C953DE4F9883C75CD14088
:10192000CB53DE4FA881B981C55CD1400C90CB531D
:10193000DE4FE881F981C55CD1403196CB53DE4F53
:10194000F983E883C55CD140CD53DE4FA881B981CE
:10195000C35CD1400C92CD53DE4FE881F981C35C6A
:10196000D1403196CD53DE4FF983E883C35CD1403B
:10197000C953DE4FF881C75CD140F150C953DE4FE7
:10198000F883C75CD140C953DE4F2881C75CD14082
:10199000222331F6CE0188599F4FDC01AA53BF4F55
:1019A000C853DE4FB983A883C85CD140C853DE4F0B
:1019B000E881F981C85CD140C653DE4FF983E883E2
:1019C000CA5CD1402EE534E0C453DE4F398328830E
:1019D000CC5CD14036E0C253DE4F3883CE5CD14080
:1019E000C453DE4FA881B981CC5CD1400C90C45364
:1019F000DE4FE881F981CC5CD1403196C453DE4F93
:101A0000F983E883CC5CD140C653DE4FA881B9810D
:101A1000CA5CD1400C92C653DE4FE881F981CA5CA2
:101A2000D1403196C653DE4FF983E883CA5CD1407A
:101A3000C253DE4FF881CE5CD140F150C253DE4F2D
:101A4000F883CE5CD140C253DE4F2881CE5CD140BA
:101A5000222331F68BE0C853DE4FE881F981C85C60
:101A6000D1403696DF01282F1D922A95E9F7CE0145
:101A700088599F4F89529F4FC153DE4F9983888366
:101A8000CF5CD1408FE694E0CF52DE4F99838883BC
:101A9000C15DD14095E0CD52DE4F9883C35DD1400A
:101AA000CF52DE4FA881B981C15DD1400C90CF5299
:101AB000DE4FE881F981C15DD1403196CF52DE4FD2
:101AC000F983E883C15DD140C153DE4FA881B9815C
:101AD000CF5CD1400C92C153DE4FE881F981CF5CDD
:101AE000D1403196C153DE4FF983E883CF5CD140BA
:101AF000CD52DE4FF881C35DD140F150CD52DE4F63
:101B0000F883C35DD140CD52DE4F2881C35DD14003
:101B1000222331F680E690E00E94622386E890E07E
:101B20000E945B1E86E990E00E946223CE018C5BDE
:101B30009E4F0E94992387EA90E00E946223CE0183
:101B40008B5A9E4F0E949923FE01ED59FF4F11823F
:101B500010829AC5FE01ED59FF4F40815181CA01A3
:101B60009C01220F331F240F351FC901880F991FB5
:101B7000880F991F880F991F821B930B840F951F45
:101B80009E0128593F4F280F391FCE018C5B9E4F75
:101B9000AE014B5A5E4FBA01A9010E94A3050097FE
:101BA00009F466C58AEB90E00E9462238DEB90E019
:101BB0000E94622383E091E00E9462238DE491E021
:101BC0000E94622385E991E00E9462238FED91E0FB
:101BD0000E9462230E94D31D0E94C723FE01E9597F
:101BE000FF4F8083FE01E959FF4F8081A82FB0E0AD
:101BF000C65ADE4FB983A883CA55D140C65ADE4FB4
:101C0000E881F981CA55D140E633F10509F414C1E0
:101C1000C65ADE4F28813981CA55D1402733310554
:101C2000ECF5C65ADE4F88819981CA55D14083337D
:101C3000910509F4B0C0C65ADE4FA881B981CA55D2
:101C4000D140A433B105ACF4C65ADE4FE881F98126
:101C5000CA55D140E133F10509F467C0C65ADE4FD9
:101C600028813981CA55D1402233310509F478C021
:101C70006AC1C65ADE4F88819981CA55D1408433E2
:101C8000910509F4A3C0C65ADE4FA881B981CA558F
:101C9000D140A533B10509F4B4C055C1C65ADE4FD1
:101CA000E881F981CA55D140E334F10509F430C126
:101CB000C65ADE4F28813981CA55D14024343105B6
:101CC000ACF4C65ADE4F88819981CA55D14087331A
:101CD000910509F4CCC0C65ADE4FA881B981CA5516
:101CE000D140A833B10509F4DDC02DC1C65ADE4F7D
:101CF000E881F981CA55D140E336F10509F408C1FC
:101D0000C65ADE4F28813981CA55D1402F36310558
:101D100009F4E3C0C65ADE4F88819981CA55D14083
:101D20008F34910509F4D9C00EC1FE01E959FF4F66
:101D300080810E94BE2283E292E00E9462238AEBAD
:101D400090E00E94622383E062E00E94801F8BE3A8
:101D500092E00E9462238CE492E00E945B1E22CFFC
:101D6000FE01E959FF4F80810E94BE2283E292E08A
:101D70000E9462238AEB90E00E94622383E062E08B
:101D80000E94911F8BE592E00E9462238DE692E013
:101D90000E945B1E07CFFE01E959FF4F80810E9420
:101DA000BE2283E292E00E9462238AEB90E00E94CE
:101DB000622383E063E00E94801F8DE792E00E942F
:101DC00062238EE892E00E945B1EECCEFE01E95990
:101DD000FF4F80810E94BE2283E292E00E94622334
:101DE0008AEB90E00E94622383E063E00E94911FEF
:101DF0008DE992E00E9462238DE692E00E945B1ED4
:101E0000D1CEFE01E959FF4F80810E94BE2283E2BC
:101E100092E00E9462238AEB90E00E94622383E0BA
:101E200064E00E94801F8FEA92E00E94622380ECAF
:101E300092E00E945B1EB6CEFE01E959FF4F808101
:101E40000E94BE2283E292E00E9462238AEB90E02D
:101E50000E94622383E064E00E94911F8FEC92E075
:101E60000E94622381EE92E00E945B1E9BCEFE01E7
:101E7000E959FF4F80810E94BE2283E292E00E94D6
:101E800062238AEB90E00E94622383E065E00E9477
:101E9000801F81EF92E00E94622382E093E00E9423
:101EA0005B1E80CEFE01E959FF4F80810E94BE2259
:101EB00083E292E00E9462238AEB90E00E94622318
:101EC00083E065E00E94911F81E193E00E9462231C
:101ED00083E293E00E945B1E65CEFE01E959FF4F4D
:101EE00080810E94BE2283E292E00E9462238AEBFC
:101EF00090E00E94622388EE93E00E94C82083E372
:101F000093E00E94622384E493E00E945B1E4ACE29
:101F1000FE01E959FF4F80810E94BE2283E292E0D8
:101F20000E9462238AEB90E00E94622380ED97E09A
:101F30000E94C82083E593E00E94622385E693E037
:101F40000E945B1E2FCE81E063E041E00E94C0133F
:101F5000FE01E959FF4F80810E94BE228AEB90E08A
:101F60000E94622385E793E00E94622380E10E9441
:101F70005A2081E063E040E00E94C013DE01AB59CB
:101F8000BF4FFE01EB59FF4F8081918101978D93E7
:101F90009C93FE01E15AFF4F80E090E0A8ECB3E48F
:101FA00080839183A283B3838E01055A1F4FFE0164
:101FB000E15AFF4F608171818281938120E030E09E
:101FC0004AEF54E40E941F02DC01CB01F801808338
:101FD0009183A283B383FE01E55AFF4F6081718133
:101FE0008281938120E030E040E85FE30E94790342
:101FF000882344F4FE01E75AFF4F81E090E091838B
:10200000808364C0FE01E55AFF4F60817181828147
:10201000938120E03FEF4FE757E40E941903181621
:102020000CF043C0FE01E15AFF4F60817181828153
:10203000938120E030E040E251E40E941F02DC0185
:10204000CB018E01075A1F4FBC01CD010E944900F0
:10205000DC01CB01F801918380831FC0FE01E95AA6
:10206000FF4F88EC90E091838083FE01E95AFF4F97
:10207000808191810197F1F7FE01E95AFF4F918329
:102080008083DE01A75ABF4FFE01E75AFF4F8081D0
:102090009181019711969C938E93FE01E75AFF4F11
:1020A000808191810097D1F627C08E01075A1F4F7A
:1020B000FE01E55AFF4F60817181828193810E9408
:1020C0004900DC01CB01F80191838083DE01AB5A2A
:1020D000BF4FFE01E75AFF4F808191818D939C9302
:1020E000FE01EB5AFF4F808191810197F1F7FE01CC
:1020F000EB5AFF4F918380830E94D31DFE01EB5961
:10210000FF4F80819181009709F04CCD81E063E021
:1021100041E00E94C01388EC0E945A20FE01EF5A51
:10212000FF4F80E090E0A6E9B3E480839183A2832F
:10213000B3838E01035B1F4FFE01EF5AFF4F608197
:1021400071818281938120E030E04AEF54E40E9463
:102150001F02DC01CB01F80180839183A283B3834A
:10216000FE01E35BFF4F608171818281938120E0FA
:1021700030E040E85FE30E947903882344F4FE01E5
:10218000E55BFF4F81E090E09183808364C0FE01B6
:10219000E35BFF4F608171818281938120E03FEF9B
:1021A0004FE757E40E94190318160CF043C0FE01D4
:1021B000EF5AFF4F608171818281938120E030E08E
:1021C00040E251E40E941F02DC01CB018E01055B5D
:1021D0001F4FBC01CD010E944900DC01CB01F80179
:1021E000918380831FC0FE01E75BFF4F88EC90E086
:1021F00091838083FE01E75BFF4F8081918101978E
:10220000F1F7FE01E75BFF4F91838083DE01A55B61
:10221000BF4FFE01E55BFF4F8081918101971196D1
:102220009C938E93FE01E55BFF4F80819181009727
:10223000D1F627C08E01055B1F4FFE01E35BFF4F08
:1022400060817181828193810E944900DC01CB0110
:10225000F80191838083DE01A95BBF4FFE01E55B3E
:10226000FF4F808191818D939C93FE01E95BFF4F2D
:10227000808191810197F1F7FE01E95BFF4F918326
:10228000808380E00E945A20FE01ED5BFF4F80E0DA
:1022900090E0A6E9B3E480839183A283B3838E01A7
:1022A000015C1F4FFE01ED5BFF4F608171818281F8
:1022B000938120E030E04AEF54E40E941F02DC01E9
:1022C000CB01F80180839183A283B383FE01FF9643
:1022D000608171818281938120E030E040E85FE39A
:1022E0000E94790388232CF481E090E09EAF8DAFAB
:1022F00046C0FE01FF96608171818281938120E05A
:102300003FEF4FE757E40E941903181664F5FE01EA
:10231000ED5BFF4F608171818281938120E030E02D
:1023200040E251E40E941F02DC01CB01BC01CD015F
:102330000E944900DC01CB019EAF8DAF0FC088EC3D
:1023400090E09CAF8BAF8BAD9CAD0197F1F79CAF4C
:102350008BAF8DAD9EAD01979EAF8DAF8DAD9EAD18
:10236000009769F716C0FE01FF9660817181828136
:1023700093810E944900DC01CB019EAF8DAF8DADF2
:102380009EAD9AAF89AF89AD9AAD0197F1F79AAF3B
:1023900089AF88EC0E945A2080E090E0A6E9B3E47F
:1023A0008DAB9EABAFABB8AF6DA97EA98FA998AD31
:1023B00020E030E04AEF54E40E941F02DC01CB0130
:1023C00089AB9AABABABBCAB69A97AA98BA99CA929
:1023D00020E030E040E85FE30E94790388232CF49A
:1023E00081E090E098AB8FA73FC069A97AA98BA93B
:1023F0009CA920E03FEF4FE757E40E94190318160D
:102400004CF56DA97EA98FA998AD20E030E040E29F
:1024100051E40E941F02DC01CB01BC01CD010E94EE
:102420004900DC01CB0198AB8FA70FC088EC90E08E
:102430009EA78DA78DA59EA50197F1F79EA78DA7B5
:102440008FA598A9019798AB8FA78FA598A90097FA
:1024500069F714C069A97AA98BA99CA90E944900AF
:10246000DC01CB0198AB8FA78FA598A99CA78BA760
:102470008BA59CA50197F1F79CA78BA780E00E94F4
:102480005A2080E090E0A6E9B3E48FA398A7A9A71B
:10249000BAA76FA178A589A59AA520E030E04AEFF8
:1024A00054E40E941F02DC01CB018BA39CA3ADA3CB
:1024B000BEA36BA17CA18DA19EA120E030E040E8ED
:1024C0005FE30E94790388232CF481E090E09AA3D3
:1024D00089A33FC06BA17CA18DA19EA120E03FEF0D
:1024E0004FE757E40E94190318164CF56FA178A521
:1024F00089A59AA520E030E040E251E40E941F0245
:10250000DC01CB01BC01CD010E944900DC01CB0103
:102510009AA389A30FC088EC90E098A38F8F8F8D2A
:1025200098A10197F1F798A38F8F89A19AA101979C
:102530009AA389A389A19AA1009769F714C06BA1F6
:102540007CA18DA19EA10E944900DC01CB019AA330
:1025500089A389A19AA19E8F8D8F8D8D9E8D0197C4
:10256000F1F79E8F8D8F88EC0E945A2080E090E0DA
:10257000A6E9B3E4898F9A8FAB8FBC8F698D7A8D72
:102580008B8D9C8D20E030E04AEF54E40E941F02C6
:10259000DC01CB018D8B9E8BAF8BB88F6D897E89D3
:1025A0008F89988D20E030E040E85FE30E94790356
:1025B00088232CF481E090E09C8B8B8B3FC06D894D
:1025C0007E898F89988D20E03FEF4FE757E40E9486
:1025D000190318164CF5698D7A8D8B8D9C8D20E032
:1025E00030E040E251E40E941F02DC01CB01BC015B
:1025F000CD010E944900DC01CB019C8B8B8B0FC06D
:1026000088EC90E09A8B898B89899A890197F1F7F8
:102610009A8B898B8B899C8901979C8B8B8B8B895F
:102620009C89009769F714C06D897E898F89988D80
:102630000E944900DC01CB019C8B8B8B8B899C8990
:10264000988B8F878F8598890197F1F7988B8F8763
:1026500080E00E945A2081E063E040E00E94C013C5
:10266000FE01EB59FF4F83E090E0918380839ACA8B
:10267000DE01AD59BF4FFE01ED59FF4F80819181C1
:10268000019611969C938E93FE01ED59FF4F808128
:1026900091818A3091050CF45DCA80E090E0AAE750
:1026A000B4E48B879C87AD87BE876B857C858D85E1
:1026B0009E8520E030E04AEF54E40E941F02DC01D6
:1026C000CB018F839887A987BA876F8178858985A1
:1026D0009A8520E030E040E85FE30E947903882398
:1026E0002CF481E090E09E838D833FC06F817885DC
:1026F00089859A8520E03FEF4FE757E40E94190350
:1027000018164CF56B857C858D859E8520E030E024
:1027100040E251E40E941F02DC01CB01BC01CD016B
:102720000E944900DC01CB019E838D830FC088ECA1
:1027300090E09C838B838B819C810197F1F79C8334
:102740008B838D819E8101979E838D838D819E8158
:10275000009769F714C06F81788589859A850E94F2
:102760004900DC01CB019E838D838D819E819A83FC
:10277000898389819A810197F1F79A838983FFCFB1
:10278000DF93CF93CDB7DEB72D970FB6F894DEBFAA
:102790000FBECDBF89836A834B838981843008F063
:1027A00009C18A81883008F005C18B81823008F028
:1027B00001C18981282F30E03D872C878C859D853C
:1027C0008130910509F44FC02C853D8522303105BB
:1027D0002CF48C859D85009771F0ECC02C853D858F
:1027E0002230310509F477C08C859D8583309105B1
:1027F00009F4A9C0DFC08B81282F30E03B872A87EE
:102800008A859B85009731F02A853B8521303105EB
:10281000B1F0D0C0AAE3B0E0EAE3F0E08081482F55
:102820008A81282F30E081E090E0022E02C0880FDC
:10283000991F0A94E2F7809584238C93BBC0AAE386
:10284000B0E0EAE3F0E08081482F8A81282F30E071
:1028500081E090E0022E02C0880F991F0A94E2F7EF
:10286000842B8C93A7C08B81282F30E03987288751
:1028700088859985009731F0288539852130310583
:10288000B1F098C0A7E3B0E0E7E3F0E08081482F23
:102890008A81282F30E081E090E0022E02C0880F6C
:1028A000991F0A94E2F7809584238C9383C0A7E351
:1028B000B0E0E7E3F0E08081482F8A81282F30E004
:1028C00081E090E0022E02C0880F991F0A94E2F77F
:1028D000842B8C936FC08B81282F30E03F832E8315
:1028E0008E819F81009731F02E813F81213031050B
:1028F000B1F060C0A4E3B0E0E4E3F0E08081482FF1
:102900008A81282F30E081E090E0022E02C0880FFB
:10291000991F0A94E2F7809584238C934BC0A4E31B
:10292000B0E0E4E3F0E08081482F8A81282F30E096
:1029300081E090E0022E02C0880F991F0A94E2F70E
:10294000842B8C9337C08B81282F30E03D832C83E0
:102950008C819D81009731F02C813D8121303105A2
:10296000B1F028C0A1E3B0E0E1E3F0E08081482FBE
:102970008A81282F30E081E090E0022E02C0880F8B
:10298000991F0A94E2F7809584238C9313C0A1E3E6
:10299000B0E0E1E3F0E08081482F8A81282F30E029
:1029A00081E090E0022E02C0880F991F0A94E2F79E
:1029B000842B8C932D960FB6F894DEBF0FBECDBF3F
:1029C000CF91DF910895DF93CF93CDB7DEB72D97E9
:1029D0000FB6F894DEBF0FBECDBF89836A834B83E9
:1029E0008981843008F009C18A81883008F005C1E6
:1029F0008B81823008F001C18981282F30E03D872A
:102A00002C878C859D858130910509F44FC02C85DC
:102A10003D85223031052CF48C859D85009771F021
:102A2000ECC02C853D852230310509F477C08C85BA
:102A30009D858330910509F4A9C0DFC08B81282FC3
:102A400030E03B872A878A859B85009731F02A856D
:102A50003B8521303105B1F0D0C0ABE3B0E0EBE312
:102A6000F0E08081482F8A81282F30E081E090E0DB
:102A7000022E02C0880F991F0A94E2F780958423E2
:102A80008C93BBC0ABE3B0E0EBE3F0E08081482F78
:102A90008A81282F30E081E090E0022E02C0880F6A
:102AA000991F0A94E2F7842B8C93A7C08B81282F5F
:102AB00030E03987288788859985009731F0288507
:102AC000398521303105B1F098C0A8E3B0E0E8E3E2
:102AD000F0E08081482F8A81282F30E081E090E06B
:102AE000022E02C0880F991F0A94E2F78095842372
:102AF0008C9383C0A8E3B0E0E8E3F0E08081482F46
:102B00008A81282F30E081E090E0022E02C0880FF9
:102B1000991F0A94E2F7842B8C936FC08B81282F26
:102B200030E03F832E838E819F81009731F02E818C
:102B30003F8121303105B1F060C0A5E3B0E0E5E3AD
:102B4000F0E08081482F8A81282F30E081E090E0FA
:102B5000022E02C0880F991F0A94E2F78095842301
:102B60008C934BC0A5E3B0E0E5E3F0E08081482F13
:102B70008A81282F30E081E090E0022E02C0880F89
:102B8000991F0A94E2F7842B8C9337C08B81282FEE
:102B900030E03D832C838C819D81009731F02C8126
:102BA0003D8121303105B1F028C0A2E3B0E0E2E37D
:102BB000F0E08081482F8A81282F30E081E090E08A
:102BC000022E02C0880F991F0A94E2F78095842391
:102BD0008C9313C0A2E3B0E0E2E3F0E08081482FE1
:102BE0008A81282F30E081E090E0022E02C0880F19
:102BF000991F0A94E2F7842B8C932D960FB6F894C4
:102C0000DEBF0FBECDBFCF91DF910895DF93CF938D
:102C100000D000D00F92CDB7DEB78A836B838A8154
:102C2000843008F06BC08B81883008F067C08A81DF
:102C3000282F30E03D832C834C815D81413051054C
:102C400041F18C819D818230910534F42C813D814C
:102C50002115310561F052C04C815D814230510532
:102C600051F18C819D8183309105B9F147C0E9E331
:102C7000F0E08081282F30E08B81882F90E0A9013F
:102C800002C0559547958A95E2F7CA0181708983FC
:102C900035C0E6E3F0E08081282F30E08B81882F7B
:102CA00090E0A90102C0559547958A95E2F7CA01BF
:102CB0008170898323C0E3E3F0E08081282F30E036
:102CC0008B81882F90E0A90102C0559547958A9580
:102CD000E2F7CA018170898311C0E0E3F0E08081EE
:102CE000282F30E08B81882F90E0A90102C05595F4
:102CF00047958A95E2F7CA018170898389810F908F
:102D00000F900F900F900F90CF91DF910895DF9368
:102D1000CF9300D000D0CDB7DEB789836A83898195
:102D2000843008F072C08A81883008F06EC08981D2
:102D3000282F30E03C832B838B819C81813091054F
:102D400049F12B813C81223031052CF48B819C810F
:102D5000009761F05AC02B813C812230310571F11E
:102D60008B819C8183309105E9F14FC0ABE3B0E0EA
:102D7000EBE3F0E08081482F8A81282F30E081E06A
:102D800090E0022E02C0880F991F0A94E2F7842770
:102D90008C933BC0A8E3B0E0E8E3F0E08081482FEB
:102DA0008A81282F30E081E090E0022E02C0880F57
:102DB000991F0A94E2F784278C9327C0A5E3B0E01B
:102DC000E5E3F0E08081482F8A81282F30E081E020
:102DD00090E0022E02C0880F991F0A94E2F7842720
:102DE0008C9313C0A2E3B0E0E2E3F0E08081482FCF
:102DF0008A81282F30E081E090E0022E02C0880F07
:102E0000991F0A94E2F784278C930F900F900F90EC
:102E10000F90CF91DF910895DF93CF9300D000D032
:102E2000CDB7DEB789836A838981843090F5898143
:102E3000282F30E03C832B838B819C81813091054E
:102E4000D1F02B813C81223031052CF48B819C8187
:102E5000009761F01EC02B813C812230310581F04A
:102E60008B819C818330910581F013C0EAE3F0E00F
:102E70008A8180830EC0E7E3F0E08A81808309C005
:102E8000E4E3F0E08A81808304C0E1E3F0E08A813A
:102E900080830F900F900F900F90CF91DF91089546
:102EA000DF93CF9300D000D0CDB7DEB789836A839C
:102EB0008981843090F58981282F30E03C832B83F1
:102EC0008B819C8181309105D1F02B813C81223016
:102ED00031052CF48B819C81009761F01EC02B8101
:102EE0003C812230310581F08B819C8183309105BA
:102EF00081F013C0EBE3F0E08A8180830EC0E8E349
:102F0000F0E08A81808309C0E5E3F0E08A81808374
:102F100004C0E2E3F0E08A8180830F900F900F906D
:102F20000F90CF91DF910895DF93CF93CDB7DEB7A8
:102F3000EAE3F0E08FE08083E7E3F0E087E080837E
:102F4000E4E3F0E08FEF8083E1E3F0E01082EBE375
:102F5000F0E01082E8E3F0E01082E5E3F0E01082B8
:102F6000E2E3F0E01082CF91DF910895DF93CF93F9
:102F7000CDB7DEB762970FB6F894DEBF0FBECDBFF8
:102F8000998B888B6A8B80E58F870E9462218F8561
:102F90000E94AF2188890E941F228A890E941F22D5
:102FA0000E94772280E090E0A0E2B1E48B879C87CA
:102FB000AD87BE876B857C858D859E8520E030E062
:102FC0004AEF54E40E941F02DC01CB018F839887F3
:102FD000A987BA876F81788589859A8520E030E056
:102FE00040E85FE30E94790388232CF481E090E0BD
:102FF0009E838D833FC06F81788589859A8520E087
:103000003FEF4FE757E40E94190318164CF56B8504
:103010007C858D859E8520E030E040E251E40E9471
:103020001F02DC01CB01BC01CD010E944900DC0183
:10303000CB019E838D830FC088EC90E09C838B83B3
:103040008B819C810197F1F79C838B838D819E817D
:1030500001979E838D838D819E81009769F714C0AF
:103060006F81788589859A850E944900DC01CB01B2
:103070009E838D838D819E819A83898389819A81A4
:103080000197F1F79A83898362960FB6F894DEBFB1
:103090000FBECDBFCF91DF910895DF93CF9300D0C6
:1030A00000D0CDB7DEB79C838B8380E589830E94F7
:1030B000622189810E94AF218B810E941F220E9480
:1030C0008C2189810E94E721CE0102960E9448222C
:1030D0000E9477228A810F900F900F900F90CF91CE
:1030E000DF910895DF93CF9300D000D000D0CDB70B
:1030F000DEB789836A838981833008F054C08A816E
:10310000843008F050C08981282F30E03E832D8321
:103110008D819E8181309105C1F02D813E812230CB
:10312000310511F18D819E810097E9F5A5E5B0E0AB
:10313000E5E5F0E080818C7F8C93A5E5B0E0E5E5E6
:10314000F0E0808183608C932EC0A5E5B0E0E5E5DA
:10315000F0E08081837F8C93A5E5B0E0E5E5F0E0C9
:1031600080818C608C931FC08A81282F30E03C8343
:103170002B838B819C818230910531F02B813C81A6
:103180002330310549F00FC0A4E5B0E0E4E5F0E0FC
:1031900080818F7B8C9307C0A4E5B0E0E4E5F0E08C
:1031A000808180648C9326960FB6F894DEBF0FBEA4
:1031B000CDBFCF91DF910895DF93CF9300D00F92D1
:1031C000CDB7DEB789838981833050F58981282F77
:1031D00030E03B832A838A819B818130910589F08D
:1031E0002A813B8122303105A1F08A819B810097A1
:1031F000B9F4ABE5B0E0EBE5F0E0808180648C935E
:103200000FC0ABE5B0E0EBE5F0E0808180688C9327
:1032100007C0ABE5B0E0EBE5F0E0808180628C9325
:103220000F900F900F90CF91DF910895DF93CF9380
:1032300000D00F92CDB7DEB789838981833050F5F6
:103240008981282F30E03B832A838A819B818130CA
:10325000910589F02A813B8122303105A1F08A81D4
:103260009B810097B9F4ABE5B0E0EBE5F0E080813D
:103270008F7B8C930FC0ABE5B0E0EBE5F0E0808195
:103280008F778C9307C0ABE5B0E0EBE5F0E0808191
:103290008F7D8C930F900F900F90CF91DF910895B9
:1032A000DF93CF9300D00F92CDB7DEB789838981AA
:1032B000833050F58981282F30E03B832A838A812F
:1032C0009B818130910589F02A813B812230310533
:1032D000A1F08A819B810097B9F4AAE5B0E0EAE504
:1032E000F0E0808180648C930FC0AAE5B0E0EAE54D
:1032F000F0E0808180688C9307C0AAE5B0E0EAE541
:10330000F0E0808180628C930F900F900F90CF91AE
:10331000DF910895DF93CF9300D000D00F92CDB707
:10332000DEB789837B836A838981833058F58A81FC
:103330009B81009739F18981282F30E03D832C83D0
:103340008C819D818130910581F02C813D812230DD
:10335000310591F08C819D810097A1F48A819B8138
:1033600090937D0480937C040DC08A819B8190930F
:103370007F0480937E0406C08A819B8190938104A0
:10338000809380040F900F900F900F900F90CF912B
:10339000DF910895DF93CF9300D0CDB7DEB7809152
:1033A0007C0490917D04009729F0E0917C04F091D9
:1033B0007D0409950F900F90CF91DF910895DF93D1
:1033C000CF9300D0CDB7DEB780917C0490917D047F
:1033D000009729F0E0917C04F0917D0409950F900D
:1033E0000F90CF91DF910895DF93CF9300D0CDB7A9
:1033F000DEB780917C0490917D04009729F0E091E4
:103400007C04F0917D0409950F900F90CF91DF918E
:103410000895DF93CF93CDB7DEB7AFE5B0E0EFE52A
:10342000F0E0808180688C93CF91DF910895DF93E5
:10343000CF93CDB7DEB7AFE5B0E0EFE5F0E0808148
:103440008F778C93CF91DF910895DF93CF93CDB792
:10345000DEB72F970FB6F894DEBF0FBECDBF8F87B4
:1034600081E060E040E00E94E31481E061E040E040
:103470000E94E31482E06F850E94501781E062E0B1
:1034800041E00E94E31480E090E0A0E0B0E48B878C
:103490009C87AD87BE876B857C858D859E8520E06A
:1034A00030E04AEF54E40E941F02DC01CB018F831D
:1034B0009887A987BA876F81788589859A8520E062
:1034C00030E040E85FE30E94790388232CF481E038
:1034D00090E09E838D833FC06F81788589859A8532
:1034E00020E03FEF4FE757E40E94190318164CF510
:1034F0006B857C858D859E8520E030E040E251E43F
:103500000E941F02DC01CB01BC01CD010E944900D9
:10351000DC01CB019E838D830FC088EC90E09C83FF
:103520008B838B819C810197F1F79C838B838D81A9
:103530009E8101979E838D838D819E81009769F77F
:1035400014C06F81788589859A850E944900DC01C5
:10355000CB019E838D838D819E819A83898389810E
:103560009A810197F1F79A83898381E062E040E0D4
:103570000E94E3142F960FB6F894DEBF0FBECDBFA6
:10358000CF91DF910895DF93CF93CDB7DEB72F971B
:103590000FB6F894DEBF0FBECDBF8F8781E060E02D
:1035A00041E00E94E31481E061E040E00E94E31406
:1035B00082E06F850E94501781E062E041E00E9446
:1035C000E31480E090E0A0E0B0E48B879C87AD87B7
:1035D000BE876B857C858D859E8520E030E04AEF37
:1035E00054E40E941F02DC01CB018F839887A987D6
:1035F000BA876F81788589859A8520E030E040E838
:103600005FE30E94790388232CF481E090E09E839D
:103610008D833FC06F81788589859A8520E03FEF53
:103620004FE757E40E94190318164CF56B857C850B
:103630008D859E8520E030E040E251E40E941F022B
:10364000DC01CB01BC01CD010E944900DC01CB01B2
:103650009E838D830FC088EC90E09C838B838B814D
:103660009C810197F1F79C838B838D819E810197CB
:103670009E838D838D819E81009769F714C06F8131
:10368000788589859A850E944900DC01CB019E835B
:103690008D838D819E819A83898389819A81019707
:1036A000F1F79A83898381E062E040E00E94E314AD
:1036B0002F960FB6F894DEBF0FBECDBFCF91DF912E
:1036C00008950F931F93DF93CF93CDB7DEB7C65402
:1036D000D0400FB6F894DEBF0FBECDBFFE01ED5B4C
:1036E000FF4F80E090E0A0EFB1E480839183A2835C
:1036F000B3838E01015C1F4FFE01ED5BFF4F6081C4
:1037000071818281938120E030E04AEF54E40E948D
:103710001F02DC01CB01F80180839183A283B38374
:10372000FE01FF96608171818281938120E030E00B
:1037300040E85FE30E94790388232CF481E090E065
:103740009EAF8DAF46C0FE01FF9660817181828180
:10375000938120E03FEF4FE757E40E9419031816CA
:1037600064F5FE01ED5BFF4F608171818281938181
:1037700020E030E040E251E40E941F02DC01CB0176
:10378000BC01CD010E944900DC01CB019EAF8DAF91
:103790000FC088EC90E09CAF8BAF8BAD9CAD0197D8
:1037A000F1F79CAF8BAF8DAD9EAD01979EAF8DAF06
:1037B0008DAD9EAD009769F716C0FE01FF96608142
:1037C0007181828193810E944900DC01CB019EAF0F
:1037D0008DAF8DAD9EAD9AAF89AF89AD9AAD019792
:1037E000F1F79AAF89AF88E30E94251A80E090E054
:1037F000A0E8BFE38DAB9EABAFABB8AF6DA97EA920
:103800008FA998AD20E030E04AEF54E40E941F02F7
:10381000DC01CB0189AB9AABABABBCAB69A97AA994
:103820008BA99CA920E030E040E85FE30E94790387
:1038300088232CF481E090E098AB8FA73FC069A962
:103840007AA98BA99CA920E03FEF4FE757E40E949B
:10385000190318164CF56DA97EA98FA998AD20E023
:1038600030E040E251E40E941F02DC01CB01BC01C8
:10387000CD010E944900DC01CB0198AB8FA70FC09E
:1038800088EC90E09EA78DA78DA59EA50197F1F7E6
:103890009EA78DA78FA598A9019798AB8FA78FA5F5
:1038A00098A9009769F714C069A97AA98BA99CA95E
:1038B0000E944900DC01CB0198AB8FA78FA598A986
:1038C0009CA78BA78BA59CA50197F1F79CA78BA71D
:1038D0008FE00E94251A80E090E0A0E8BFE38FA36C
:1038E00098A7A9A7BAA76FA178A589A59AA520E04E
:1038F00030E04AEF54E40E941F02DC01CB018BA3AD
:103900009CA3ADA3BEA36BA17CA18DA19EA120E031
:1039100030E040E85FE30E94790388232CF481E0E3
:1039200090E09AA389A33FC06BA17CA18DA19EA129
:1039300020E03FEF4FE757E40E94190318164CF5BB
:103940006FA178A589A59AA520E030E040E251E476
:103950000E941F02DC01CB01BC01CD010E94490085
:10396000DC01CB019AA389A30FC088EC90E098A357
:103970008F8F8F8D98A10197F1F798A38F8F89A1D1
:103980009AA101979AA389A389A19AA1009769F79F
:1039900014C06BA17CA18DA19EA10E944900DC01F5
:1039A000CB019AA389A389A19AA19E8F8D8F8D8D1A
:1039B0009E8D0197F1F79E8F8D8F81E00E94251AD1
:1039C00080E090E0A0E0B0E4898F9A8FAB8FBC8F4D
:1039D000698D7A8D8B8D9C8D20E030E04AEF54E428
:1039E0000E941F02DC01CB018D8B9E8BAF8BB88FA9
:1039F0006D897E898F89988D20E030E040E85FE313
:103A00000E94790388232CF481E090E09C8B8B8BBF
:103A10003FC06D897E898F89988D20E03FEF4FE709
:103A200057E40E94190318164CF5698D7A8D8B8D19
:103A30009C8D20E030E040E251E40E941F02DC0156
:103A4000CB01BC01CD010E944900DC01CB019C8B64
:103A50008B8B0FC088EC90E09A8B898B89899A892F
:103A60000197F1F79A8B898B8B899C8901979C8BA5
:103A70008B8B8B899C89009769F714C06D897E892F
:103A80008F89988D0E944900DC01CB019C8B8B8B28
:103A90008B899C89988B8F878F8598890197F1F7FF
:103AA000988B8F8786E00E94251A80E090E0A0E83E
:103AB000BFE38B879C87AD87BE876B857C858D85B3
:103AC0009E8520E030E04AEF54E40E941F02DC01B2
:103AD000CB018F839887A987BA876F81788589857D
:103AE0009A8520E030E040E85FE30E947903882374
:103AF0002CF481E090E09E838D833FC06F817885B8
:103B000089859A8520E03FEF4FE757E40E9419032B
:103B100018164CF56B857C858D859E8520E030E000
:103B200040E251E40E941F02DC01CB01BC01CD0147
:103B30000E944900DC01CB019E838D830FC088EC7D
:103B400090E09C838B838B819C810197F1F79C8310
:103B50008B838D819E8101979E838D838D819E8134
:103B6000009769F714C06F81788589859A850E94CE
:103B70004900DC01CB019E838D838D819E819A83D8
:103B8000898389819A810197F1F79A838983CA5B36
:103B9000DF4F0FB6F894DEBF0FBECDBFCF91DF91E0
:103BA0001F910F910895DF93CF93CDB7DEB72E9776
:103BB0000FB6F894DEBF0FBECDBF81E00E94251A7C
:103BC00080E090E0A0E0B0E48B879C87AD87BE8763
:103BD0006B857C858D859E8520E030E04AEF54E43E
:103BE0000E941F02DC01CB018F839887A987BA87C7
:103BF0006F81788589859A8520E030E040E85FE331
:103C00000E94790388232CF481E090E09E838D83C9
:103C10003FC06F81788589859A8520E03FEF4FE727
:103C200057E40E94190318164CF56B857C858D8529
:103C30009E8520E030E040E251E40E941F02DC015A
:103C4000CB01BC01CD010E944900DC01CB019E8368
:103C50008D830FC088EC90E09C838B838B819C814B
:103C60000197F1F79C838B838D819E8101979E83C1
:103C70008D838D819E81009769F714C06F8178854F
:103C800089859A850E944900DC01CB019E838D8342
:103C90008D819E819A83898389819A810197F1F729
:103CA0009A8389832E960FB6F894DEBF0FBECDBFE0
:103CB000CF91DF910895DF93CF9300D0CDB7DEB7DA
:103CC0009A8389830BC0E981FA81208189819A8155
:103CD00001969A838983822F0E94C31AE981FA810F
:103CE0008081882381F70F900F90CF91DF91089505
:103CF000DF93CF9300D000D0CDB7DEB789836A833E
:103D00008981282F30E03C832B838B819C818130FB
:103D1000910531F02B813C812230310531F009C011
:103D20008A8181580E94251A04C08A8181540E9488
:103D3000251A0F900F900F900F90CF91DF9108955B
:103D4000EF92FF920F931F93DF93CF93CDB7DEB720
:103D500028970FB6F894DEBF0FBECDBF6D837E836C
:103D60008F83988781E090E0A0E0B0E089839A8318
:103D7000AB83BC838D819E81AF81B8850097A105FF
:103D8000B105D1F580E30E94C31A36C089819A81BA
:103D9000AB81BC812AE030E040E050E0BC01CD01C5
:103DA0000E9470257B018C018D819E81AF81B88539
:103DB0002AE030E040E050E0BC01CD010E948F25B8
:103DC000DC01CB018E0D9F1DA01FB11F89839A833B
:103DD000AB83BC838D819E81AF81B8852AE030E0C2
:103DE00040E050E0BC01CD010E948F25DA01C901FD
:103DF0008D839E83AF83B8878D819E81AF81B88587
:103E00000097A105B10511F623C089819A81AB8184
:103E1000BC812AE030E040E050E0BC01CD010E94CE
:103E20008F25DC01CB01805D0E94C31A89819A81B4
:103E3000AB81BC812AE030E040E050E0BC01CD0124
:103E40000E948F25DA01C90189839A83AB83BC83E1
:103E500089819A81AB81BC8181309105A105B10531
:103E6000A1F628960FB6F894DEBF0FBECDBFCF9156
:103E7000DF911F910F91FF90EF900895DF93CF9303
:103E8000CDB7DEB727970FB6F894DEBF0FBECDBF14
:103E90009C838B836D834E832F838D81882F90E04D
:103EA000880F991F880F991F880F991F8A838A810D
:103EB00080648A838A810E94251A19820EC08981B2
:103EC000282F30E08B819C81FC01E20FF31F808161
:103ED0000E94C31A89818F5F89838981883078F332
:103EE0008E816F810E94781E8D810E94C31A279651
:103EF0000FB6F894DEBF0FBECDBFCF91DF9108950E
:103F0000DF93CF9300D0CDB7DEB789836A838981F1
:103F10006A8141E00E94E3140F900F90CF91DF91EE
:103F20000895DF93CF9300D0CDB7DEB789836A833E
:103F300089816A8140E00E94E3140F900F90CF9135
:103F4000DF910895DF93CF9300D0CDB7DEB789839B
:103F50006A838981482F50E08A81282F30E0CA0186
:103F6000B9010E9487160F900F90CF91DF910895AD
:103F7000DF93CF93CDB7DEB7A3E5B0E0E3E5F0E0A4
:103F8000808188608C93A3E5B0E0E3E5F0E0808178
:103F900080648C93A9E5B0E0E9E5F0E080818D7F55
:103FA0008C93A9E5B0E0E9E5F0E080818E7F8C9309
:103FB000ECE5F0E087EC8083A3E5B0E0E3E5F0E03A
:103FC0008081887C8C93A3E5B0E0E3E5F0E080811C
:103FD00082638C93CF91DF910895DF93CF930F92FB
:103FE000CDB7DEB78983E2E5F0E0898180830F9069
:103FF000CF91DF910895DF93CF9300D0CDB7DEB797
:104000009A83898389819A81009731F089819A8185
:1040100090938304809382040F900F90CF91DF914F
:1040200008951F920F920FB60F9211242F933F9372
:104030004F935F936F937F938F939F93AF93BF93B0
:10404000EF93FF93DF93CF93CDB7DEB780918204D8
:1040500090918304009729F0E0918204F091830409
:104060000995CF91DF91FF91EF91BF91AF919F9112
:104070008F917F916F915F914F913F912F910F9011
:104080000FBE0F901F901895DF93CF9300D0CDB740
:10409000DEB79A83898389819A81009731F089817B
:1040A0009A8190938504809384040F900F90CF9110
:1040B000DF910895DF93CF930F92CDB7DEB7898359
:1040C000ECE5F0E0898180830F90CF91DF91089536
:1040D000DF93CF93CDB7DEB7A3E5B0E0E3E5F0E043
:1040E0008081887F8C93CF91DF910895DF93CF9368
:1040F000CDB7DEB7AFE4B0E0EFE4F0E080818E7FD3
:104100008C93AFE4B0E0EFE4F0E0808182608C93C8
:10411000AEE4B0E0EEE4F0E0808188608C93AEE441
:10412000B0E0EEE4F0E0808180618C93AFE4B0E039
:10413000EFE4F0E080818F7B8C93AFE4B0E0EFE4BC
:10414000F0E0808180688C93E6E4F0E08FE19EE40B
:1041500091838083EAE4F0E088EE93E091838083AA
:10416000AEE4B0E0EEE4F0E080818E7F8C93AEE4CC
:10417000B0E0EEE4F0E0808182608C93AEE4B0E0E9
:10418000EEE4F0E080818B7F8C93CF91DF910895F6
:10419000DF93CF9300D0CDB7DEB79A838983EAE46B
:1041A000F0E089819A81918380830F900F90CF9165
:1041B000DF910895DF93CF93CDB7DEB7AEE4B0E0E3
:1041C000EEE4F0E080818E7F8C93AEE4B0E0EEE42C
:1041D000F0E0808182608C93AEE4B0E0EEE4F0E049
:1041E00080818B7F8C93CF91DF910895DF93CF9364
:1041F00000D0CDB7DEB79A838983ECE4F0E0898103
:104200009A81918380830F900F90CF91DF910895D1
:10421000DF93CF93CDB7DEB7ECE4F0E080819181FE
:10422000CF91DF910895DF93CF930F92CDB7DEB793
:104230008983A6E5B0E0E6E5F0E0808180648C93B8
:10424000E0E2F0E082E08083A1E2B0E0E1E2F0E0D1
:1042500080818E7F8C93A1E2B0E0E1E2F0E080818A
:104260008D7F8C938981882329F0E2E2F0E08981B7
:10427000880F8083A6E5B0E0E6E5F0E08081846009
:104280008C930F90CF91DF910895DF93CF930F928E
:10429000CDB7DEB78983E2E2F0E08981880F8083C1
:1042A000A6E5B0E0E6E5F0E0808180648C93A6E5C9
:1042B000B0E0E6E5F0E0808184608C930F90CF91D0
:1042C000DF910895DF93CF930F92CDB7DEB71982B8
:1042D000A6E5B0E0E6E5F0E0808180628C93A6E59B
:1042E000B0E0E6E5F0E0808180688C93E6E5F0E000
:1042F00080818823DCF7E1E2F0E08081882F90E084
:10430000887F90708830910511F081E089838981E0
:104310000F90CF91DF910895DF93CF930F92CDB798
:10432000DEB71982A6E5B0E0E6E5F0E08081846AB8
:104330008C93E6E5F0E080818823DCF7E1E2F0E0B1
:104340008081882F90E0887F90708031910511F0F6
:1043500082E0898389810F90CF91DF910895DF9367
:10436000CF9300D0CDB7DEB78A831982E3E2F0E0C5
:104370008A81880F8083A3E2B0E0E3E2F0E08081ED
:104380008E7F8C93A6E5B0E0E6E5F0E080818F7D3E
:104390008C93A6E5B0E0E6E5F0E0808180688C9340
:1043A000E6E5F0E080818823DCF7E1E2F0E080815F
:1043B000882F90E0887F90708831910511F083E01C
:1043C000898389810F900F90CF91DF910895DF93BA
:1043D000CF9300D0CDB7DEB78A831982E3E2F0E055
:1043E0008A81880F8083A3E2B0E0E3E2F0E080817D
:1043F00081608C93A6E5B0E0E6E5F0E080818F7DFA
:104400008C93A6E5B0E0E6E5F0E0808180688C93CF
:10441000E6E5F0E080818823DCF7E1E2F0E08081EE
:10442000882F90E0887F90708034910511F084E0AF
:10443000898389810F900F90CF91DF910895DF9349
:10444000CF9300D0CDB7DEB78A831982E3E2F0E0E4
:104450008A818083A6E5B0E0E6E5F0E080818068AF
:104460008C93E6E5F0E080818823DCF7E1E2F0E080
:104470008081882F90E0887F90708832910511F0BC
:1044800085E0898389810F900F90CF91DF91089506
:10449000DF93CF9300D00F92CDB7DEB79B838A8393
:1044A0001982A6E5B0E0E6E5F0E0808180688C93B3
:1044B000E6E5F0E080818823DCF7E1E2F0E080814E
:1044C000882F90E0887F90708035910519F086E004
:1044D000898306C0E3E2F0E08081EA81FB8180838A
:1044E00089810F900F900F90CF91DF910895DF9306
:1044F000CF93CDB7DEB7A6E5B0E0E6E5F0E080818A
:1045000080618C93A6E5B0E0E6E5F0E0808180680C
:104510008C93CF91DF910895DF93CF9300D0CDB7E7
:10452000DEB783E390E09A838983E9E2F0E0898152
:104530008083E0E4F0E089819A81892F9927808344
:10454000AAE2B0E0EAE2F0E080818B7F8C93E0E4C5
:10455000F0E086E88083AAE2B0E0EAE2F0E0808161
:1045600088608C93AAE2B0E0EAE2F0E080818061AA
:104570008C930F900F90CF91DF910895DF93CF939D
:104580000F92CDB7DEB78983EBE2F0E080818295B0
:1045900086958770882F90E0817090700097A1F3C6
:1045A000ECE2F0E089818083EBE2F0E080818295AB
:1045B00086958770882F90E0817090700097A1F3A6
:1045C000ABE2B0E0EBE2F0E0808180648C930F908E
:1045D000CF91DF910895DF93CF9300D000D00F9259
:1045E000CDB7DEB78D8319821A821B821C8217C059
:1045F00089819A81AB81BC810196A11DB11D8983FE
:104600009A83AB83BC8389819A81AB81BC818838D2
:1046100023E1920720E0A20720E0B20761F0EBE27D
:10462000F0E08081829586958770882F90E0817078
:1046300090700097E9F289819A81AB81BC818838BA
:1046400023E1920720E0A20720E0B20799F1198246
:104650001A821B821C82ECE2F0E08D81808317C0FD
:1046600089819A81AB81BC810196A11DB11D89838D
:104670009A83AB83BC8389819A81AB81BC81883862
:1046800023E1920720E0A20720E0B20761F0EBE20D
:10469000F0E08081829586958770882F90E0817008
:1046A00090700097E9F2ABE2B0E0EBE2F0E08081DD
:1046B00080648C930F900F900F900F900F90CF917C
:1046C000DF910895DF93CF9300D0CDB7DEB79A8303
:1046D00089830BC0E981FA81208189819A810196C1
:1046E0009A838983822F0E94EB22E981FA8180815B
:1046F000882381F70F900F90CF91DF910895DF937A
:10470000CF930F92CDB7DEB78983EBE2F0E08081E3
:10471000829586958770882F90E0817090708823AD
:1047200021F0ECE2F0E0898180830F90CF91DF915E
:104730000895DF93CF9300D000D0CDB7DEB79C8330
:104740008B8319820E94C7238A838B819C81009767
:10475000B9F013C08A810E947F238981282F30E01D
:104760008B819C81FC01E20FF31F8A818083898108
:104770008F5F89830E94C7238A838A818D3051F796
:104780000F900F900F900F90CF91DF910895DF93CE
:10479000CF93CDB7DEB7EBE2F0E080818823DCF782
:1047A000ECE2F0E08081CF91DF910895DF93CF9329
:1047B000CDB7DEB7ECE2F0E08081CF91DF910895D4
:1047C000DF93CF9300D00F92CDB7DEB78FEF8B83FF
:1047D0001A8219820BC089819A8101969A838983F2
:1047E00089819A8123E18838920729F0EBE2F0E091
:1047F0008081882384F789819A8123E18838920710
:1048000021F0ECE2F0E080818B838B810F900F90A0
:104810000F90CF91DF910895DF93CF93CDB7DEB79F
:104820002B970FB6F894DEBF0FBECDBF6887798790
:104830008A879B871F821E821D8281E090E0A0E014
:10484000B0E089839A83AB83BC8388859985AA85E8
:10485000BB850097A105B10509F47BC042C08885DE
:104860009985AA85BB852AE030E040E050E0BC0194
:10487000CD010E948F25DC01CB018E8389819A8135
:10488000AB81BC812AE030E040E050E0BC01CD01CA
:104890000E9470259B01AC018E81882F90E0A0E0E2
:1048A000B0E0820F931FA41FB51F89839A83AB8347
:1048B000BC8388859985AA85BB852AE030E040E0E5
:1048C00050E0BC01CD010E948F25DA01C901888723
:1048D0009987AA87BB878F818F5F8F838D818F5F39
:1048E0008D8388859985AA85BB850097A105B1052B
:1048F00009F0B5CF1F8228C089819A81AB81BC8124
:104900002AE030E040E050E0BC01CD010E948F255C
:10491000DC01CB018E8389819A81AB81BC812AE045
:1049200030E040E050E0BC01CD010E948F25DA016B
:10493000C90189839A83AB83BC838E81805D0E9489
:104940007F238F818F5F8F839F818D819817A0F246
:1049500003C080E30E947F232B960FB6F894DEBF3E
:104960000FBECDBFCF91DF910895DF93CF9300D0DD
:104970000F92CDB7DEB789837B836A8389818330C9
:1049800080F48A819B81009761F08981882F90E073
:10499000880F991FFC01EA57FB4F8A819B81918305
:1049A00080830F900F900F90CF91DF9108951F9209
:1049B0000F920FB60F9211242F933F934F935F9353
:1049C0006F937F938F939F93AF93BF93EF93FF93D7
:1049D000DF93CF93CDB7DEB78091860490918704A3
:1049E000009729F0E0918604F09187040995CF9112
:1049F000DF91FF91EF91BF91AF919F918F917F9147
:104A00006F915F914F913F912F910F900FBE0F903B
:104A10001F9018951F920F920FB60F9211242F938B
:104A20003F934F935F936F937F938F939F93AF9336
:104A3000BF93EF93FF93DF93CF93CDB7DEB7809112
:104A4000880490918904009729F0E0918804F091FE
:104A500089040995CF91DF91FF91EF91BF91AF91BB
:104A60009F918F917F916F915F914F913F912F9186
:104A70000F900FBE0F901F9018951F920F920FB6B8
:104A80000F9211242F933F934F935F936F937F93D4
:104A90008F939F93AF93BF93EF93FF93DF93CF9346
:104AA000CDB7DEB780918A0490918B04009729F0EE
:104AB000E0918A04F0918B040995CF91DF91FF91E9
:104AC000EF91BF91AF919F918F917F916F915F9186
:104AD0004F913F912F910F900FBE0F901F901895FF
:104AE000629FD001739FF001829FE00DF11D649FD2
:104AF000E00DF11D929FF00D839FF00D749FF00D5E
:104B0000659FF00D9927729FB00DE11DF91F639FFE
:104B1000B00DE11DF91FBD01CF0111240895A1E2DF
:104B20001A2EAA1BBB1BFD010DC0AA1FBB1FEE1F27
:104B3000FF1FA217B307E407F50720F0A21BB30B72
:104B4000E40BF50B661F771F881F991F1A9469F7EE
:104B500060957095809590959B01AC01BD01CF014A
:104B600008952F923F924F925F926F927F928F9211
:104B70009F92AF92BF92CF92DF92EF92FF920F93EC
:104B80001F93CF93DF93CDB7DEB7CA1BDB0B0FB6F6
:104B9000F894DEBF0FBECDBF09942A8839884888B3
:104BA0005F846E847D848C849B84AA84B984C88449
:104BB000DF80EE80FD800C811B81AA81B981CE0F40
:104BC000D11D0FB6F894DEBF0FBECDBFED01089525
:104BD000FB01DC018D91019080190110D9F3990B33
:104BE0000895FC0101900020E9F7809590958E0FC3
:084BF0009F1F0895F894FFCF08
:104BF80057656C636F6D6520746F2074686520530A
:104C08006D61727420486F6D652053797374656D9A
:104C1800210D0A0D0A0057656C636F6D6520486F9A
:104C28006D652E2E2E00456E746572207573657243
:104C38006E616D653A20000D0A456E7465722070CC
:104C4800617373776F72643A20000D0A00546F2005
:104C58005475726E204F4E207468652046697273D1
:104C680074526F6F6D20507265737320310D0A5442
:104C78006F205475726E204F464620746865204632
:104C880069727374526F6F6D20507265737320323E
:104C98000D0A000D0A546F205475726E204F4E2075
:104CA800746865205365636F6E64526F6F6D205032
:104CB8007265737320330D0A546F205475726E2019
:104CC8004F464620746865205365636F6E64526F63
:104CD8006F6D20507265737320340D0A000D0A54ED
:104CE8006F205475726E204F4E207468652054688A
:104CF800697264526F6F6D20507265737320350D41
:104D08000A546F205475726E204F464620746865A9
:104D1800205468697264526F6F6D205072657373A6
:104D280020360D0A000D0A546F205475726E204FFC
:104D38004E2074686520466F75727468526F6F6D87
:104D480020507265737320370D0A546F20547572A2
:104D58006E204F46462074686520466F75727468E9
:104D6800526F6F6D20507265737320380D0A000DF5
:104D78000A546F204F70656E2054686520446F6F29
:104D880072205072657373206F206F72204F0D0A66
:104D9800546F20436C6F73652054686520446F6FAF
:104DA800722050726573732063206F7220430D0A5E
:104DB8000D0A000D0A0D0A4163636573732047727B
:104DC800616E746564210D0A0D0A004C6967687488
:104DD80020524F4F4D31204F4E0D0A004C696768E5
:104DE8007420524F4F4D31204F4E004C6967687404
:104DF80020524F4F4D31204F46460D0A004C6967EF
:104E0800687420524F4F4D32204F4646004C696718
:104E1800687420524F4F4D32204F4E0D0A004C6996
:104E280067687420524F4F4D32204F4E004C6967CF
:104E3800687420524F4F4D32204F46460D0A004CA1
:104E48006967687420524F4F4D33204F4E0D0A004A
:104E58004C6967687420524F4F4D33204F4E004CB9
:104E68006967687420524F4F4D33204F46460D0AEC
:104E7800004C6967687420524F4F4D33204F4646A7
:104E8800004C6967687420524F4F4D34204F4E0DC7
:104E98000A004C6967687420524F4F4D34204F4EBA
:104EA800004C6967687420524F4F4D34204F464676
:104EB8000D0A004C6967687420524F4F4D34204FDB
:104EC800464600446F6F72204973204F70656E65C7
:104ED800640D0A00446F6F72204973204F70656E2D
:104EE800656400446F6F7220497320436C6F6F7361
:104EF80065640D0A00446F6F7220497320436C6F1C
:104F08006F736564004974732077726F6E672063EE
:104F1800686F697320706C656173207472792061A1
:104F28006761696E2E0D0A007573657230000000A6
:104F380000000000000000000030303030007573C1
:104F48006572310000000000000000000000003120
:104F580031313100757365723200000000000000C5
:104F6800000000000032323232007573657233007F
:104F7800000000000000000000000033333333005D
:104F88007573657234000000000000000000000026
:104F98000034343434007573657235000000000045
:104FA8000000000000000035353535007573657266
:104FB8003600000000000000000000000036363611
:104FC80036007573657237000000000000000000AD
:104FD80000000037373737007573657238000000F6
:104FE80000000000000000000038383838007573F1
:104FF8006572390000000000000000000000003960
:0C500800393939000000000000000000F1
:00000001FF
