:100000000C942A000C9447000C9447000C94470071
:100010000C9447000C9447000C9447000C94470044
:100020000C9447000C9447000C9447000C944B2010
:100030000C9447000C9411250C9444250C947725BE
:100040000C9447000C9447000C9447000C94470014
:100050000C94470011241FBECFE5D8E0DEBFCDBF12
:1000600014E0A0E6B0E0ECE6FCE402C005900D92DE
:10007000A83EB107D9F715E0A8EEB4E001C01D9283
:10008000AE30B107E1F70E94A3050C9434260C941E
:100090000000EF92FF920F931F937B018C0120E0F1
:1000A00030E040E05FE40E94490388238CF0C801FF
:1000B000B70120E030E040E05FE40E94C1010E940F
:1000C000A9039B01AC01205030404040504806C07D
:1000D000C801B7010E94A9039B01AC01B901CA0183
:1000E0001F910F91FF90EF900895A0E0B0E0EBE733
:1000F000F0E00C94EB25DC012B01FA019C9192308D
:1001000008F439C1EB018881823008F433C194309E
:1001100069F4843009F02FC111969C91119789815F
:10012000981709F428C1A1E0B4E025C1843009F48E
:1001300021C18230A9F4923009F01DC19A01AD01AC
:1001400088E0EA010990AE01E90109929E0181501F
:10015000C1F7E201898111969C918923818308C1AD
:10016000923009F407C112962D903C901397EB0141
:100170008A819B811496AD90BD90CD90DC901797AD
:10018000EC80FD800E811F819101281B390BB90184
:1001900037FF04C066277727621B730B6032710537
:1001A0000CF061C0121613066CF537014801062EDB
:1001B00004C096948794779467940A94D2F721E0C8
:1001C00030E040E050E004C0220F331F441F551FB1
:1001D0006A95D2F721503040404050402E213F21B7
:1001E00040235123211531054105510521F021E01E
:1001F00030E040E050E079018A01E628F72808293C
:1002000019293CC0232BD1F1260E371E350146019A
:10021000062E04C096948794779467940A94D2F734
:1002200021E030E040E050E004C0220F331F441FC3
:10023000551F6A95D2F721503040404050402A2146
:100240003B214C215D21211531054105510521F04E
:1002500021E030E040E050E059016A01A628B728CB
:10026000C828D9280BC0821593052CF01C01AA249C
:10027000BB24650103C0EE24FF24870111969C91E5
:10028000D20111968C91981709F445C0992339F041
:10029000A80197012A193B094C095D0906C0A6016E
:1002A00095012E193F09400B510B57FD08C01182D3
:1002B0003382228224833583468357831DC081E0A5
:1002C00081833382228288279927DC01821B930B4A
:1002D000A40BB50B84839583A683B7830DC0220F2F
:1002E000331F441F551F24833583468357838281E0
:1002F000938101979383828324813581468157813D
:10030000DA01C9010197A109B1098F5F9F4FAF4F72
:10031000BF4328F30BC0918333822282EA0CFB1C7B
:100320000C1D1D1DE482F5820683178383E0808304
:10033000248135814681578157FF1AC0C901AA27F8
:1003400097FDA095BA2F81709070A070B0705695EF
:10035000479537952795822B932BA42BB52B848318
:100360009583A683B7838281938101969383828349
:10037000DF0101C0D201CD01CDB7DEB7E2E10C94BF
:100380000726A0E2B0E0E7ECF1E00C94F7256983E2
:100390007A838B839C832D833E834F835887E9E048
:1003A000EE2EF12CEC0EFD1ECE010196B7010E943F
:1003B000D2048E010F5E1F4FCE010596B8010E9438
:1003C000D2048A8991E089278A8BC701B801AE01DE
:1003D000475E5F4F0E9475000E94FD03A096E6E015
:1003E0000C941326A0E2B0E0E8EFF1E00C94F725BE
:1003F00069837A838B839C832D833E834F835887C5
:10040000F9E0EF2EF12CEC0EFD1ECE010196B701A6
:100410000E94D2048E010F5E1F4FCE010596B801D7
:100420000E94D204C701B801AE01475E5F4F0E942F
:1004300075000E94FD03A096E6E00C941326A0E24E
:10044000B0E0E5E2F2E00C94EB2569837A838B83DC
:100450009C832D833E834F835887CE010196BE0136
:10046000675F7F4F0E94D204CE010596BE016F5E8A
:100470007F4F0E94D2049985923088F0898982301A
:10048000C8F0943019F4823051F404C0843029F457
:10049000923081F481E094E0C6C0923049F420E0CB
:1004A0009A858A89981321E02A87CE010996BBC0D4
:1004B000823049F420E09A858A89981321E02A8BBA
:1004C000CE014196B0C02D843E844F8458886D88FB
:1004D0007E888F88988CEE24FF248701AA24BB2471
:1004E000650140E050E060E070E0E0E0F0E0C10174
:1004F00081709070892BE9F0E60CF71C081D191D1E
:100500009A01AB012A0D3B1D4C1D5D1D80E090E062
:10051000A0E0B0E0E614F7040805190520F481E036
:1005200090E0A0E0B0E0BA01A901480F591F6A1F8E
:100530007B1FAA0CBB1CCC1CDD1C97FE08C081E0F5
:1005400090E0A0E0B0E0A82AB92ACA2ADB2A3196B6
:10055000E032F10549F0660C771C881C991C569412
:10056000479437942794C3CFFA85EA892B893C892D
:100570008B859C85280F391F2E5F3F4F17C0CA01FE
:1005800081709070892B61F016950795F794E79428
:1005900080E090E0A0E0B0E8E82AF92A0A2B1B2BC3
:1005A00076956795579547952F5F3F4F77FDE7CF36
:1005B0000CC0440F551F661F771F17FD4160EE0CDE
:1005C000FF1C001F111F21503040403090E05907A0
:1005D00090E0690790E4790760F32B8F3C8FDB0193
:1005E000CA018F779070A070B07080349105A1051A
:1005F000B10561F447FD0AC0E114F10401051105DC
:1006000029F0405C5F4F6F4F7F4F40781A8EFE1786
:1006100011F081E08A8F4D8F5E8F6F8F78A383E01A
:10062000898FCE0149960E94FD03A096E2E10C94C9
:100630000726A8E1B0E0EFE1F3E00C94F725698329
:100640007A838B839C832D833E834F83588789E0F5
:10065000E82EF12CEC0EFD1ECE010196B7010E9492
:10066000D2048E010F5E1F4FCE010596B8010E9485
:10067000D2048985823040F08989823028F0C70110
:10068000B8010E944A0501C08FEF6896E6E00C941D
:100690001326A8E1B0E0EFE4F3E00C94F7256983BA
:1006A0007A838B839C832D833E834F83588789E095
:1006B000E82EF12CEC0EFD1ECE010196B7010E9432
:1006C000D2048E010F5E1F4FCE010596B8010E9425
:1006D000D2048985823040F08989823028F0C701B0
:1006E000B8010E944A0501C08FEF6896E6E00C94BD
:1006F0001326A8E1B0E0EFE7F3E00C94F725698357
:100700007A838B839C832D833E834F83588789E034
:10071000E82EF12CEC0EFD1ECE010196B7010E94D1
:10072000D2048E010F5E1F4FCE010596B8010E94C4
:10073000D2048985823040F08989823028F0C7014F
:10074000B8010E944A0501C081E06896E6E00C9479
:100750001326ACE0B0E0EFEAF3E00C94FB256983EC
:100760007A838B839C83CE010196BE016B5F7F4FA2
:100770000E94D2048D81823061F1823050F1843048
:1007800021F48E81882351F12EC02F81388537FDC9
:1007900020C06E812F3131051CF06623F9F023C093
:1007A0008EE190E0821B930B29853A854B855C8511
:1007B00004C056954795379527958A95D2F76623B5
:1007C000B1F050954095309521953F4F4F4F5F4F79
:1007D0000EC020E030E040E050E009C02FEF3FEFD6
:1007E0004FEF5FE704C020E030E040E050E8B9019F
:1007F000CA012C96E2E00C941726DF92EF92FF924A
:100800000F931F93FC01E480F58006811781D1804E
:100810008081823048F480E090E0A0E1B0E0E82AF6
:10082000F92A0A2B1B2BA5C0843009F49FC0823003
:1008300021F4EE24FF24870105C0E114F104010531
:10084000110519F4E0E0F0E096C0628173819FEF3A
:10085000623879070CF05BC022E83FEF261B370BAC
:100860002A3131052CF020E030E040E050E02AC091
:10087000B801A701022E04C0769567955795479554
:100880000A94D2F781E090E0A0E0B0E004C0880FC5
:10089000991FAA1FBB1F2A95D2F70197A109B10979
:1008A0008E219F21A023B1230097A105B10521F03E
:1008B00081E090E0A0E0B0E09A01AB01282B392B59
:1008C0004A2B5B2BDA01C9018F779070A070B07052
:1008D00080349105A105B10539F427FF09C0205CDA
:1008E0003F4F4F4F5F4F04C0215C3F4F4F4F5F4F13
:1008F000E0E0F0E02030A0E03A07A0E04A07A0E402
:100900005A0710F0E1E0F0E079018A0127C0603871
:10091000710564F5FB01E158FF4FD801C7018F77DE
:100920009070A070B07080349105A105B10539F4C4
:10093000E7FE0DC080E490E0A0E0B0E004C08FE3EB
:1009400090E0A0E0B0E0E80EF91E0A1F1B1F17FFA1
:1009500005C016950795F794E794319687E01695AC
:100960000795F794E7948A95D1F705C0EE24FF2404
:100970008701EFEFF0E06E2F679566276795902F60
:100980009F77D794DD24D7948E2F8695492F462BB9
:10099000582F5D29B701CA011F910F91FF90EF9069
:1009A000DF900895FC01DB01408151812281622F9B
:1009B0006F7770E0221F2227221F9381892F880FD3
:1009C000822B282F30E0991F9927991F11969C930D
:1009D000119721153105A9F54115510561057105DD
:1009E00011F482E037C082E89FEF13969C938E93B8
:1009F00012979A01AB0167E0220F331F441F551F66
:100A00006A95D1F783E08C930DC0220F331F441FEA
:100A1000551F12968D919C911397019713969C9355
:100A20008E931297203080E0380780E0480780E4FA
:100A3000580758F314962D933D934D935C93179755
:100A400008952F3F310579F4411551056105710570
:100A500019F484E08C93089564FF03C081E08C93C3
:100A600012C01C9210C02F57304013963C932E9307
:100A7000129783E08C9387E0440F551F661F771F02
:100A80008A95D1F7706414964D935D936D937C9322
:100A9000179708951F93DC01FB019C91923008F495
:100AA00047C08081823008F443C0943051F41196DD
:100AB0001C91843099F58181682F70E0611B710968
:100AC0003FC0843021F0923031F48230B9F181811D
:100AD000882389F12DC011961C9111978230F1F075
:100AE00081811817D9F412962D913C911397828128
:100AF00093818217930794F028173907BCF0149656
:100B00008D919D910D90BC91A02D248135814681C0
:100B10005781281739074A075B0718F4112341F05A
:100B20000AC082179307A407B50740F4112319F0F0
:100B300061E070E005C06FEF7FEF02C060E070E041
:100B4000CB011F9108950F931F93DF93CF93CDB7E0
:100B5000DEB7C456D0400FB6F894DEBF0FBECDBF8F
:100B60000E94D90D0E94C6220E94F21F0E94B0204E
:100B70000E94A71180E690E00E94A1140E94B31E7B
:100B800080E790E00E949C2388EF94E00E94D323AA
:100B900083E890E00E949C2389E095E00E94D323A3
:100BA000FE01ED59FF4F11821082F7C0FE01ED5991
:100BB000FF4F40815181CA019C01220F331F240F36
:100BC000351FC901880F991F880F991F880F991F1A
:100BD000821B930B840F951FAC01475F5B4F88EF1F
:100BE00094E029E035E0B9010E94FE15009709F470
:100BF000C8C086E990E00E949C2380E690E00E94B5
:100C0000A114FE01E15AFF4F80E090E0AAE7B4E4AE
:100C100080839183A283B3838E01055A1F4FFE0107
:100C2000E15AFF4F608171818281938120E030E041
:100C30004AEF54E40E941F02DC01CB01F8018083DB
:100C40009183A283B383FE01E55AFF4F60817181D6
:100C50008281938120E030E040E85FE30E947903E5
:100C6000882344F4FE01E75AFF4F81E090E091832E
:100C7000808364C0FE01E55AFF4F608171818281EB
:100C8000938120E03FEF4FE757E40E9419031816C5
:100C90000CF043C0FE01E15AFF4F608171818281F7
:100CA000938120E030E040E251E40E941F02DC0129
:100CB000CB018E01075A1F4FBC01CD010E94490094
:100CC000DC01CB01F801918380831FC0FE01E95A4A
:100CD000FF4F88EC90E091838083FE01E95AFF4F3B
:100CE000808191810197F1F7FE01E95AFF4F9183CD
:100CF0008083DE01A75ABF4FFE01E75AFF4F808174
:100D00009181019711969C938E93FE01E75AFF4FB4
:100D1000808191810097D1F627C08E01075A1F4F1D
:100D2000FE01E55AFF4F60817181828193810E94AB
:100D30004900DC01CB01F80191838083DE01AB5ACD
:100D4000BF4FFE01E75AFF4F808191818D939C93A5
:100D5000FE01EB5AFF4F808191810197F1F7FE016F
:100D6000EB5AFF4F918380830E9419140E94981EB2
:100D70000E9401248093E5048091E5040E943C16C2
:100D8000F5CFDE01AD59BF4FFE01ED59FF4F808118
:100D90009181019611969C938E93FE01ED59FF4F20
:100DA000808191818A3091050CF400CF8091E60416
:100DB0009091E70401979093E7048093E60480E123
:100DC0000E94D11FFE01EF5AFF4F80E090E0AAEF92
:100DD000B3E480839183A283B3838E01035B1F4FAF
:100DE000FE01EF5AFF4F608171818281938120E083
:100DF00030E04AEF54E40E941F02DC01CB01F8010D
:100E000080839183A283B383FE01E35BFF4F608104
:100E100071818281938120E030E040E85FE30E94AD
:100E20007903882344F4FE01E55BFF4F81E090E005
:100E30009183808364C0FE01E35BFF4F6081718119
:100E40008281938120E03FEF4FE757E40E9419032E
:100E500018160CF043C0FE01EF5AFF4F60817181FC
:100E60008281938120E030E040E251E40E941F0241
:100E7000DC01CB018E01055B1F4FBC01CD010E943F
:100E80004900DC01CB01F801918380831FC0FE0182
:100E9000E75BFF4F88EC90E091838083FE01E75B86
:100EA000FF4F808191810197F1F7FE01E75BFF4FD2
:100EB00091838083DE01A55BBF4FFE01E55BFF4FA1
:100EC00080819181019711969C938E93FE01E55B41
:100ED000FF4F808191810097D1F627C08E01055B7D
:100EE0001F4FFE01E35BFF4F60817181828193811F
:100EF0000E944900DC01CB01F80191838083DE016F
:100F0000A95BBF4FFE01E55BFF4F808191818D930F
:100F10009C93FE01E95BFF4F808191810197F1F77E
:100F2000FE01E95BFF4F918380830E94E61F0E94D0
:100F3000421F8091E6049091E704009709F020CECB
:100F400088EC0E94D11FFE01ED5BFF4F80E090E036
:100F5000A6E9B3E480839183A283B3838E01015C0D
:100F60001F4FFE01ED5BFF4F608171818281938194
:100F700020E030E04AEF54E40E941F02DC01CB0184
:100F8000F80180839183A283B383FE01FF96608181
:100F900071818281938120E030E040E85FE30E942C
:100FA000790388232CF481E090E09EAF8DAF46C09A
:100FB000FE01FF96608171818281938120E03FEF85
:100FC0004FE757E40E941903181664F5FE01ED5B24
:100FD000FF4F608171818281938120E030E040E2A7
:100FE00051E40E941F02DC01CB01BC01CD010E9433
:100FF0004900DC01CB019EAF8DAF0FC088EC90E0C3
:101000009CAF8BAF8BAD9CAD0197F1F79CAF8BAFD5
:101010008DAD9EAD01979EAF8DAF8DAD9EAD00970E
:1010200069F716C0FE01FF9660817181828193810C
:101030000E944900DC01CB019EAF8DAF8DAD9EAD0E
:101040009AAF89AF89AD9AAD0197F1F79AAF89AFA1
:1010500080E00E94D11F80E090E0A6E9B3E48DAB70
:101060009EABAFABB8AF6DA97EA98FA998AD20E0BC
:1010700030E04AEF54E40E941F02DC01CB0189AB4F
:101080009AABABABBCAB69A97AA98BA99CA920E0B0
:1010900030E040E85FE30E94790388232CF481E08C
:1010A00090E098AB8FA73FC069A97AA98BA99CA9AA
:1010B00020E03FEF4FE757E40E94190318164CF564
:1010C0006DA97EA98FA998AD20E030E040E251E4FF
:1010D0000E941F02DC01CB01BC01CD010E9449002E
:1010E000DC01CB0198AB8FA70FC088EC90E09EA7E6
:1010F0008DA78DA59EA50197F1F79EA78DA78FA51A
:1011000098A9019798AB8FA78FA598A9009769F721
:1011100014C069A97AA98BA99CA90E944900DC0185
:10112000CB0198AB8FA78FA598A99CA78BA78BA560
:101130009CA50197F1F79CA78BA788EC0E94D11F73
:1011400080E090E0A6E9B3E48FA398A7A9A7BAA787
:101150006FA178A589A59AA520E030E04AEF54E474
:101160000E941F02DC01CB018BA39CA3ADA3BEA3F5
:101170006BA17CA18DA19EA120E030E040E85FE35F
:101180000E94790388232CF481E090E09AA389A33C
:101190003FC06BA17CA18DA19EA120E03FEF4FE756
:1011A00057E40E94190318164CF56FA178A589A57C
:1011B0009AA520E030E040E251E40E941F02DC01E9
:1011C000CB01BC01CD010E944900DC01CB019AA3F7
:1011D00089A30FC088EC90E098A38F8F8F8D98A182
:1011E0000197F1F798A38F8F89A19AA101979AA3EC
:1011F00089A389A19AA1009769F714C06BA17CA16A
:101200008DA19EA10E944900DC01CB019AA389A374
:1012100089A19AA19E8F8D8F8D8D9E8D0197F1F75B
:101220009E8F8D8F80E00E94D11F80E090E0A6E924
:10123000B3E4898F9A8FAB8FBC8F698D7A8D8B8D3C
:101240009C8D20E030E04AEF54E40E941F02DC0154
:10125000CB018D8B9E8BAF8BB88F6D897E898F89EB
:10126000988D20E030E040E85FE30E947903882316
:101270002CF481E090E09C8B8B8B3FC06D897E8944
:101280008F89988D20E03FEF4FE757E40E941903C4
:1012900018164CF5698D7A8D8B8D9C8D20E030E091
:1012A00040E251E40E941F02DC01CB01BC01CD01F0
:1012B0000E944900DC01CB019C8B8B8B0FC088EC1A
:1012C00090E09A8B898B89899A890197F1F79A8B9B
:1012D000898B8B899C8901979C8B8B8B8B899C89B3
:1012E000009769F714C06D897E898F89988D0E9457
:1012F0004900DC01CB019C8B8B8B8B899C89988B63
:101300008F878F8598890197F1F7988B8F8788EC65
:101310000E94D11F80E090E0A6E9B3E48B879C8710
:10132000AD87BE876B857C858D859E8520E030E00E
:101330004AEF54E40E941F02DC01CB018F8398879F
:10134000A987BA876F81788589859A8520E030E002
:1013500040E85FE30E94790388232CF481E090E069
:101360009E838D833FC06F81788589859A8520E033
:101370003FEF4FE757E40E94190318164CF56B85B1
:101380007C858D859E8520E030E040E251E40E941E
:101390001F02DC01CB01BC01CD010E944900DC0130
:1013A000CB019E838D830FC088EC90E09C838B8360
:1013B0008B819C810197F1F79C838B838D819E812A
:1013C00001979E838D838D819E81009769F714C05C
:1013D0006F81788589859A850E944900DC01CB015F
:1013E0009E838D838D819E819A83898389819A8151
:1013F0000197F1F79A8389830E94E61F83E090E0CA
:101400009093E7048093E604BBCBDF93CF93CDB7F3
:10141000DEB72D970FB6F894DEBF0FBECDBF898320
:101420006A834B838981843008F009C18A818830BE
:1014300008F005C18B81823008F001C18981282F15
:1014400030E03D872C878C859D858130910509F49E
:101450004FC02C853D85223031052CF48C859D852F
:10146000009771F0ECC02C853D852230310509F4E0
:1014700077C08C859D858330910509F4A9C0DFC0B4
:101480008B81282F30E03B872A878A859B850097B0
:1014900031F02A853B8521303105B1F0D0C0AAE377
:1014A000B0E0EAE3F0E08081482F8A81282F30E025
:1014B00081E090E0022E02C0880F991F0A94E2F7A3
:1014C000809584238C93BBC0AAE3B0E0EAE3F0E00C
:1014D0008081482F8A81282F30E081E090E0022E21
:1014E00002C0880F991F0A94E2F7842B8C93A7C03F
:1014F0008B81282F30E03987288788859985009748
:1015000031F02885398521303105B1F098C0A7E345
:10151000B0E0E7E3F0E08081482F8A81282F30E0B7
:1015200081E090E0022E02C0880F991F0A94E2F732
:10153000809584238C9383C0A7E3B0E0E7E3F0E0D9
:101540008081482F8A81282F30E081E090E0022EB0
:1015500002C0880F991F0A94E2F7842B8C936FC006
:101560008B81282F30E03F832E838E819F810097CF
:1015700031F02E813F8121303105B1F060C0A4E30C
:10158000B0E0E4E3F0E08081482F8A81282F30E04A
:1015900081E090E0022E02C0880F991F0A94E2F7C2
:1015A000809584238C934BC0A4E3B0E0E4E3F0E0A7
:1015B0008081482F8A81282F30E081E090E0022E40
:1015C00002C0880F991F0A94E2F7842B8C9337C0CE
:1015D0008B81282F30E03D832C838C819D81009767
:1015E00031F02C813D8121303105B1F028C0A1E3DB
:1015F000B0E0E1E3F0E08081482F8A81282F30E0DD
:1016000081E090E0022E02C0880F991F0A94E2F751
:10161000809584238C9313C0A1E3B0E0E1E3F0E074
:101620008081482F8A81282F30E081E090E0022ECF
:1016300002C0880F991F0A94E2F7842B8C932D9691
:101640000FB6F894DEBF0FBECDBFCF91DF910895E6
:10165000DF93CF93CDB7DEB72D970FB6F894DEBFEB
:101660000FBECDBF89836A834B838981843008F0A4
:1016700009C18A81883008F005C18B81823008F069
:1016800001C18981282F30E03D872C878C859D857D
:101690008130910509F44FC02C853D8522303105FC
:1016A0002CF48C859D85009771F0ECC02C853D85D0
:1016B0002230310509F477C08C859D8583309105F2
:1016C00009F4A9C0DFC08B81282F30E03B872A872F
:1016D0008A859B85009731F02A853B85213031052D
:1016E000B1F0D0C0ABE3B0E0EBE3F0E08081482F95
:1016F0008A81282F30E081E090E0022E02C0880F1E
:10170000991F0A94E2F7809584238C93BBC0ABE3C6
:10171000B0E0EBE3F0E08081482F8A81282F30E0B1
:1017200081E090E0022E02C0880F991F0A94E2F730
:10173000842B8C93A7C08B81282F30E03987288792
:1017400088859985009731F02885398521303105C4
:10175000B1F098C0A8E3B0E0E8E3F0E08081482F62
:101760008A81282F30E081E090E0022E02C0880FAD
:10177000991F0A94E2F7809584238C9383C0A8E391
:10178000B0E0E8E3F0E08081482F8A81282F30E044
:1017900081E090E0022E02C0880F991F0A94E2F7C0
:1017A000842B8C936FC08B81282F30E03F832E8356
:1017B0008E819F81009731F02E813F81213031054C
:1017C000B1F060C0A5E3B0E0E5E3F0E08081482F30
:1017D0008A81282F30E081E090E0022E02C0880F3D
:1017E000991F0A94E2F7809584238C934BC0A5E35C
:1017F000B0E0E5E3F0E08081482F8A81282F30E0D7
:1018000081E090E0022E02C0880F991F0A94E2F74F
:10181000842B8C9337C08B81282F30E03D832C8321
:101820008C819D81009731F02C813D8121303105E3
:10183000B1F028C0A2E3B0E0E2E3F0E08081482FFD
:101840008A81282F30E081E090E0022E02C0880FCC
:10185000991F0A94E2F7809584238C9313C0A2E326
:10186000B0E0E2E3F0E08081482F8A81282F30E069
:1018700081E090E0022E02C0880F991F0A94E2F7DF
:10188000842B8C932D960FB6F894DEBF0FBECDBF80
:10189000CF91DF910895DF93CF9300D000D00F92C6
:1018A000CDB7DEB78A836B838A81843008F06BC042
:1018B0008B81883008F067C08A81282F30E03D8313
:1018C0002C834C815D814130510541F18C819D819A
:1018D0008230910534F42C813D812115310561F070
:1018E00052C04C815D814230510551F18C819D8106
:1018F00083309105B9F147C0E9E3F0E08081282FFA
:1019000030E08B81882F90E0A90102C05595479562
:101910008A95E2F7CA018170898335C0E6E3F0E079
:101920008081282F30E08B81882F90E0A90102C0B0
:10193000559547958A95E2F7CA018170898323C03E
:10194000E3E3F0E08081282F30E08B81882F90E066
:10195000A90102C0559547958A95E2F7CA018170A1
:10196000898311C0E0E3F0E08081282F30E08B8193
:10197000882F90E0A90102C0559547958A95E2F716
:10198000CA018170898389810F900F900F900F9009
:101990000F90CF91DF910895DF93CF9300D000D0C7
:1019A000CDB7DEB789836A838981843008F072C03D
:1019B0008A81883008F06EC08981282F30E03C830E
:1019C0002B838B819C818130910549F12B813C8156
:1019D000223031052CF48B819C81009761F05AC034
:1019E0002B813C812230310571F18B819C818330C8
:1019F0009105E9F14FC0ABE3B0E0EBE3F0E08081AB
:101A0000482F8A81282F30E081E090E0022E02C02A
:101A1000880F991F0A94E2F784278C933BC0A8E3B0
:101A2000B0E0E8E3F0E08081482F8A81282F30E0A1
:101A300081E090E0022E02C0880F991F0A94E2F71D
:101A400084278C9327C0A5E3B0E0E5E3F0E0808134
:101A5000482F8A81282F30E081E090E0022E02C0DA
:101A6000880F991F0A94E2F784278C9313C0A2E38E
:101A7000B0E0E2E3F0E08081482F8A81282F30E057
:101A800081E090E0022E02C0880F991F0A94E2F7CD
:101A900084278C930F900F900F900F90CF91DF9130
:101AA0000895DF93CF9300D000D0CDB7DEB7898300
:101AB0006A838981843090F58981282F30E03C83C6
:101AC0002B838B819C8181309105D1F02B813C81CE
:101AD000223031052CF48B819C81009761F01EC06F
:101AE0002B813C812230310581F08B819C818330B8
:101AF000910581F013C0EAE3F0E08A8180830EC093
:101B0000E7E3F0E08A81808309C0E4E3F0E08A81C2
:101B1000808304C0E1E3F0E08A8180830F900F901E
:101B20000F900F90CF91DF910895DF93CF9300D066
:101B300000D0CDB7DEB789836A838981843090F580
:101B40008981282F30E03C832B838B819C818130DD
:101B50009105D1F02B813C81223031052CF48B8111
:101B60009C81009761F01EC02B813C8122303105A1
:101B700081F08B819C818330910581F013C0EBE370
:101B8000F0E08A8180830EC0E8E3F0E08A81808300
:101B900009C0E5E3F0E08A81808304C0E2E3F0E07D
:101BA0008A8180830F900F900F900F90CF91DF91DB
:101BB0000895DF93CF93CDB7DEB7EAE3F0E08FEF80
:101BC0008083E7E3F0E087EF8083E4E3F0E01082D6
:101BD000E1E3F0E08EE78083EBE3F0E01082E8E3FE
:101BE000F0E088E18083E5E3F0E01082E2E3F0E0FA
:101BF0001082CF91DF910895DF93CF93CDB7DEB7F9
:101C000062970FB6F894DEBF0FBECDBF998B888B5D
:101C10006A8B80E58F870E949C218F850E94E92135
:101C200088890E9459228A890E9459220E94B122E1
:101C300080E090E0A0E2B1E48B879C87AD87BE870F
:101C40006B857C858D859E8520E030E04AEF54E4ED
:101C50000E941F02DC01CB018F839887A987BA8776
:101C60006F81788589859A8520E030E040E85FE3E0
:101C70000E94790388232CF481E090E09E838D8379
:101C80003FC06F81788589859A8520E03FEF4FE7D7
:101C900057E40E94190318164CF56B857C858D85D9
:101CA0009E8520E030E040E251E40E941F02DC010A
:101CB000CB01BC01CD010E944900DC01CB019E8318
:101CC0008D830FC088EC90E09C838B838B819C81FB
:101CD0000197F1F79C838B838D819E8101979E8371
:101CE0008D838D819E81009769F714C06F817885FF
:101CF00089859A850E944900DC01CB019E838D83F2
:101D00008D819E819A83898389819A810197F1F7D8
:101D10009A83898362960FB6F894DEBF0FBECDBF5B
:101D2000CF91DF910895DF93CF9300D000D0CDB74E
:101D3000DEB79C838B8380E589830E949C21898107
:101D40000E94E9218B810E9459220E94C62189812B
:101D50000E942122CE0102960E9482220E94B1227C
:101D60008A810F900F900F900F90CF91DF9108957F
:101D7000DF93CF9300D000D000D0CDB7DEB78983FA
:101D80006A838981833008F054C08A81843008F0E6
:101D900050C08981282F30E03E832D838D819E8124
:101DA00081309105C1F02D813E812230310511F144
:101DB0008D819E810097E9F5A5E5B0E0E5E5F0E0CD
:101DC00080818C7F8C93A5E5B0E0E5E5F0E0808133
:101DD00083608C932EC0A5E5B0E0E5E5F0E080815E
:101DE000837F8C93A5E5B0E0E5E5F0E080818C6031
:101DF0008C931FC08A81282F30E03C832B838B81FA
:101E00009C818230910531F02B813C81233031055A
:101E100049F00FC0A4E5B0E0E4E5F0E080818F7BFD
:101E20008C9307C0A4E5B0E0E4E5F0E08081806435
:101E30008C9326960FB6F894DEBF0FBECDBFCF9120
:101E4000DF910895DF93CF9300D00F92CDB7DEB727
:101E500089838981833050F58981282F30E03B8345
:101E60002A838A819B818130910589F02A813B8177
:101E700022303105A1F08A819B810097B9F4ABE54E
:101E8000B0E0EBE5F0E0808180648C930FC0ABE5BF
:101E9000B0E0EBE5F0E0808180688C9307C0ABE5B3
:101EA000B0E0EBE5F0E0808180628C930F900F90C2
:101EB0000F90CF91DF910895DF93CF9300D00F92D1
:101EC000CDB7DEB789838981833050F58981282F8A
:101ED00030E03B832A838A819B818130910589F0A0
:101EE0002A813B8122303105A1F08A819B810097B4
:101EF000B9F4ABE5B0E0EBE5F0E080818F7B8C934B
:101F00000FC0ABE5B0E0EBE5F0E080818F778C931C
:101F100007C0ABE5B0E0EBE5F0E080818F7D8C930E
:101F20000F900F900F90CF91DF910895DF93CF9393
:101F300000D00F92CDB7DEB789838981833050F509
:101F40008981282F30E03B832A838A819B818130DD
:101F5000910589F02A813B8122303105A1F08A81E7
:101F60009B810097B9F4AAE5B0E0EAE5F0E0808152
:101F700080648C930FC0AAE5B0E0EAE5F0E08081D0
:101F800080688C9307C0AAE5B0E0EAE5F0E08081C4
:101F900080628C930F900F900F90CF91DF910895F6
:101FA000DF93CF9300D000D00F92CDB7DEB78983F7
:101FB0007B836A838981833058F58A819B8100976E
:101FC00039F18981282F30E03D832C838C819D81DC
:101FD0008130910581F02C813D812230310591F0D5
:101FE0008C819D810097A1F48A819B819093E90463
:101FF0008093E8040DC08A819B819093EB048093C9
:10200000EA0406C08A819B819093ED048093EC04DE
:102010000F900F900F900F900F90CF91DF91089538
:10202000DF93CF9300D0CDB7DEB78091E8049091D5
:10203000E904009729F0E091E804F091E90409959A
:102040000F900F90CF91DF910895DF93CF9300D041
:10205000CDB7DEB78091E8049091E904009729F0AC
:10206000E091E804F091E90409950F900F90CF9169
:10207000DF910895DF93CF9300D0CDB7DEB7809185
:10208000E8049091E904009729F0E091E804F091C8
:10209000E90409950F900F90CF91DF910895DF9398
:1020A000CF93CDB7DEB7AFE5B0E0EFE5F0E08081EC
:1020B00080688C93CF91DF910895DF93CF93CDB754
:1020C000DEB7AFE5B0E0EFE5F0E080818F778C938D
:1020D000CF91DF910895DF93CF93CDB7DEB72F97E0
:1020E0000FB6F894DEBF0FBECDBF8F8781E060E0F2
:1020F00040E00E94280B81E061E040E00E94280B54
:1021000080E06F850E94950D81E062E041E00E94D1
:10211000280B80E090E0A0E0B0E48B879C87AD873F
:10212000BE876B857C858D859E8520E030E04AEFFB
:1021300054E40E941F02DC01CB018F839887A9879A
:10214000BA876F81788589859A8520E030E040E8FC
:102150005FE30E94790388232CF481E090E09E8362
:102160008D833FC06F81788589859A8520E03FEF18
:102170004FE757E40E94190318164CF56B857C85D0
:102180008D859E8520E030E040E251E40E941F02F0
:10219000DC01CB01BC01CD010E944900DC01CB0177
:1021A0009E838D830FC088EC90E09C838B838B8112
:1021B0009C810197F1F79C838B838D819E81019790
:1021C0009E838D838D819E81009769F714C06F81F6
:1021D000788589859A850E944900DC01CB019E8320
:1021E0008D838D819E819A83898389819A810197CC
:1021F000F1F79A83898381E062E040E00E94280B36
:102200002F960FB6F894DEBF0FBECDBFCF91DF91F2
:102210000895DF93CF93CDB7DEB72F970FB6F8941D
:10222000DEBF0FBECDBF8F8781E060E041E00E943E
:10223000280B81E061E040E00E94280B80E06F8580
:102240000E94950D81E062E041E00E94280B80E051
:1022500090E0A0E0B0E48B879C87AD87BE876B855C
:102260007C858D859E8520E030E04AEF54E40E9415
:102270001F02DC01CB018F839887A987BA876F8102
:10228000788589859A8520E030E040E85FE30E9408
:10229000790388232CF481E090E09E838D833FC0F6
:1022A0006F81788589859A8520E03FEF4FE757E475
:1022B0000E94190318164CF56B857C858D859E85CB
:1022C00020E030E040E251E40E941F02DC01CB013B
:1022D000BC01CD010E944900DC01CB019E838D83AE
:1022E0000FC088EC90E09C838B838B819C8101974D
:1022F000F1F79C838B838D819E8101979E838D83D3
:102300008D819E81009769F714C06F8178858985DA
:102310009A850E944900DC01CB019E838D838D81CB
:102320009E819A83898389819A810197F1F79A83A3
:10233000898381E062E040E00E94280B2F960FB66F
:10234000F894DEBF0FBECDBFCF91DF9108950F93FC
:102350001F93DF93CF93CDB7DEB7C654D0400FB6EF
:10236000F894DEBF0FBECDBFFE01ED5BFF4F80E0F6
:1023700090E0A0EFB1E480839183A283B3838E01C8
:10238000015C1F4FFE01ED5BFF4F60817181828117
:10239000938120E030E04AEF54E40E941F02DC0108
:1023A000CB01F80180839183A283B383FE01FF9662
:1023B000608171818281938120E030E040E85FE3B9
:1023C0000E94790388232CF481E090E09EAF8DAFCA
:1023D00046C0FE01FF96608171818281938120E079
:1023E0003FEF4FE757E40E941903181664F5FE010A
:1023F000ED5BFF4F608171818281938120E030E04D
:1024000040E251E40E941F02DC01CB01BC01CD017E
:102410000E944900DC01CB019EAF8DAF0FC088EC5C
:1024200090E09CAF8BAF8BAD9CAD0197F1F79CAF6B
:102430008BAF8DAD9EAD01979EAF8DAF8DAD9EAD37
:10244000009769F716C0FE01FF9660817181828155
:1024500093810E944900DC01CB019EAF8DAF8DAD11
:102460009EAD9AAF89AF89AD9AAD0197F1F79AAF5A
:1024700089AF88E30E946B1080E090E0A0E8BFE3A2
:102480008DAB9EABAFABB8AF6DA97EA98FA998AD50
:1024900020E030E04AEF54E40E941F02DC01CB014F
:1024A00089AB9AABABABBCAB69A97AA98BA99CA948
:1024B00020E030E040E85FE30E94790388232CF4B9
:1024C00081E090E098AB8FA73FC069A97AA98BA95A
:1024D0009CA920E03FEF4FE757E40E94190318162C
:1024E0004CF56DA97EA98FA998AD20E030E040E2BF
:1024F00051E40E941F02DC01CB01BC01CD010E940E
:102500004900DC01CB0198AB8FA70FC088EC90E0AD
:102510009EA78DA78DA59EA50197F1F79EA78DA7D4
:102520008FA598A9019798AB8FA78FA598A9009719
:1025300069F714C069A97AA98BA99CA90E944900CE
:10254000DC01CB0198AB8FA78FA598A99CA78BA77F
:102550008BA59CA50197F1F79CA78BA78FE00E9404
:102560006B1080E090E0A0E8BFE38FA398A7A9A735
:10257000BAA76FA178A589A59AA520E030E04AEF17
:1025800054E40E941F02DC01CB018BA39CA3ADA3EA
:10259000BEA36BA17CA18DA19EA120E030E040E80C
:1025A0005FE30E94790388232CF481E090E09AA3F2
:1025B00089A33FC06BA17CA18DA19EA120E03FEF2C
:1025C0004FE757E40E94190318164CF56FA178A540
:1025D00089A59AA520E030E040E251E40E941F0264
:1025E000DC01CB01BC01CD010E944900DC01CB0123
:1025F0009AA389A30FC088EC90E098A38F8F8F8D4A
:1026000098A10197F1F798A38F8F89A19AA10197BB
:102610009AA389A389A19AA1009769F714C06BA115
:102620007CA18DA19EA10E944900DC01CB019AA34F
:1026300089A389A19AA19E8F8D8F8D8D9E8D0197E3
:10264000F1F79E8F8D8F81E00E946B1080E090E00B
:10265000A0E0B0E4898F9A8FAB8FBC8F698D7A8DA3
:102660008B8D9C8D20E030E04AEF54E40E941F02E5
:10267000DC01CB018D8B9E8BAF8BB88F6D897E89F2
:102680008F89988D20E030E040E85FE30E94790375
:1026900088232CF481E090E09C8B8B8B3FC06D896C
:1026A0007E898F89988D20E03FEF4FE757E40E94A5
:1026B000190318164CF5698D7A8D8B8D9C8D20E051
:1026C00030E040E251E40E941F02DC01CB01BC017A
:1026D000CD010E944900DC01CB019C8B8B8B0FC08C
:1026E00088EC90E09A8B898B89899A890197F1F718
:1026F0009A8B898B8B899C8901979C8B8B8B8B897F
:102700009C89009769F714C06D897E898F89988D9F
:102710000E944900DC01CB019C8B8B8B8B899C89AF
:10272000988B8F878F8598890197F1F7988B8F8782
:1027300086E00E946B1080E090E0A0E8BFE38B870A
:102740009C87AD87BE876B857C858D859E8520E0C7
:1027500030E04AEF54E40E941F02DC01CB018F837A
:102760009887A987BA876F81788589859A8520E0BF
:1027700030E040E85FE30E94790388232CF481E095
:1027800090E09E838D833FC06F81788589859A858F
:1027900020E03FEF4FE757E40E94190318164CF56D
:1027A0006B857C858D859E8520E030E040E251E49C
:1027B0000E941F02DC01CB01BC01CD010E94490037
:1027C000DC01CB019E838D830FC088EC90E09C835D
:1027D0008B838B819C810197F1F79C838B838D8107
:1027E0009E8101979E838D838D819E81009769F7DD
:1027F00014C06F81788589859A850E944900DC0123
:10280000CB019E838D838D819E819A83898389816B
:102810009A810197F1F79A838983CA5BDF4F0FB6DC
:10282000F894DEBF0FBECDBFCF91DF911F910F9106
:102830000895DF93CF93CDB7DEB72E970FB6F894F8
:10284000DEBF0FBECDBF81E00E946B1080E090E044
:10285000A0E0B0E48B879C87AD87BE876B857C85C5
:102860008D859E8520E030E04AEF54E40E941F02EF
:10287000DC01CB018F839887A987BA876F81788520
:1028800089859A8520E030E040E85FE30E94790383
:1028900088232CF481E090E09E838D833FC06F817C
:1028A000788589859A8520E03FEF4FE757E40E94BD
:1028B000190318164CF56B857C858D859E8520E067
:1028C00030E040E251E40E941F02DC01CB01BC0178
:1028D000CD010E944900DC01CB019E838D830FC096
:1028E00088EC90E09C838B838B819C810197F1F72E
:1028F0009C838B838D819E8101979E838D838D81A7
:102900009E81009769F714C06F81788589859A85C3
:102910000E944900DC01CB019E838D838D819E81C5
:102920009A83898389819A810197F1F79A838983B0
:102930002E960FB6F894DEBF0FBECDBFCF91DF91BC
:102940000895DF93CF9300D0CDB7DEB79A83898304
:102950000BC0E981FA81208189819A8101969A834D
:102960008983822F0E940911E981FA81808188235D
:1029700081F70F900F90CF91DF910895DF93CF9360
:1029800000D000D0CDB7DEB789836A838981282F34
:1029900030E03C832B838B819C818130910531F029
:1029A0002B813C812230310531F009C08A81815868
:1029B0000E946B1004C08A8181540E946B100F909A
:1029C0000F900F900F90CF91DF910895EF92FF92AB
:1029D0000F931F93DF93CF93CDB7DEB728970FB632
:1029E000F894DEBF0FBECDBF6D837E838F83988743
:1029F00081E090E0A0E0B0E089839A83AB83BC8360
:102A00008D819E81AF81B8850097A105B105D1F573
:102A100080E30E94091136C089819A81AB81BC8113
:102A20002AE030E040E050E0BC01CD010E94AA2540
:102A30007B018C018D819E81AF81B8852AE030E0D9
:102A400040E050E0BC01CD010E94C925DC01CB0172
:102A50008E0D9F1DA01FB11F89839A83AB83BC83FA
:102A60008D819E81AF81B8852AE030E040E050E062
:102A7000BC01CD010E94C925DA01C9018D839E8365
:102A8000AF83B8878D819E81AF81B8850097A105FE
:102A9000B10511F623C089819A81AB81BC812AE0FE
:102AA00030E040E050E0BC01CD010E94C925DC01CE
:102AB000CB01805D0E94091189819A81AB81BC8123
:102AC0002AE030E040E050E0BC01CD010E94C92581
:102AD000DA01C90189839A83AB83BC8389819A8196
:102AE000AB81BC8181309105A105B105A1F6289685
:102AF0000FB6F894DEBF0FBECDBFCF91DF911F910F
:102B00000F91FF90EF900895DF93CF93CDB7DEB78D
:102B100027970FB6F894DEBF0FBECDBF9C838B8383
:102B20006D834E832F838D81882F90E0880F991FAE
:102B3000880F991F880F991F8A838A8180648A83EE
:102B40008A810E946B1019820EC08981282F30E083
:102B50008B819C81FC01E20FF31F80810E9409118F
:102B600089818F5F89838981883078F38E816F8135
:102B70000E94BE148D810E94091127960FB6F89409
:102B8000DEBF0FBECDBFCF91DF910895DF93CF930E
:102B900000D0CDB7DEB789836A8389816A8141E03D
:102BA0000E94280B0F900F90CF91DF910895DF9333
:102BB000CF9300D0CDB7DEB789836A8389816A81DC
:102BC00040E00E94280B0F900F90CF91DF91089565
:102BD000DF93CF9300D0CDB7DEB789836A83898135
:102BE000482F50E08A81282F30E0CA01B9010E94A5
:102BF000CC0C0F900F90CF91DF910895DF93CF937E
:102C0000CDB7DEB728970FB6F894DEBF0FBECDBFA5
:102C10009A8389837C836B835E834D832D813E8180
:102C200089819A81B9010E9422260097C1F48D8181
:102C30009E819C012F5E3F4F8B819C81B9010E9438
:102C40002226009761F48B819C810E942B26843080
:102C5000910529F481E090E098878F8302C018865F
:102C60001F828F81988528960FB6F894DEBF0FBE1D
:102C7000CDBFCF91DF9108950F931F93DF93CF9333
:102C8000CDB7DEB7CF59D0400FB6F894DEBF0FBE38
:102C9000CDBFFE01E556FF4F8083FE01E556FF4F95
:102CA0008081282F30E0C456DF4F39832883CC59E8
:102CB000D040C456DF4F88819981CC59D0408633AB
:102CC000910509F48BC4C456DF4FE881F981CC59D2
:102CD000D040E733F1050CF03EC0C456DF4F2881E9
:102CE0003981CC59D0402333310509F413C2C4567D
:102CF000DF4F88819981CC59D04084339105B4F459
:102D0000C456DF4FE881F981CC59D040E133F10559
:102D100009F468C0C456DF4F28813981CC59D040AE
:102D20002233310509F42AC10C94F91DC456DF4F32
:102D300088819981CC59D0408433910509F4B6C279
:102D4000C456DF4FE881F981CC59D040E533F10515
:102D500009F478C34EC7C456DF4F28813981CC5956
:102D6000D0402334310509F4B9C6C456DF4F8881F9
:102D70009981CC59D04084349105ACF4C456DF4FCE
:102D8000E881F981CC59D040E733F10509F4F2C468
:102D9000C456DF4F28813981CC59D04028333105C2
:102DA00009F486C526C7C456DF4F88819981CC595E
:102DB000D0408336910509F491C6C456DF4FE881AF
:102DC000F981CC59D040EF36F10509F4FCC5C45661
:102DD000DF4F28813981CC59D0402F34310509F497
:102DE000F2C507C7FE01E556FF4F80810E94F82219
:102DF0008CEA90E00E949C2383E062E00E94C6156A
:102E00008FEA90E00E949C2380EC90E00E94A11445
:102E1000FE01E956FF4F80E090E0AAEFB3E4808323
:102E20009183A283B3838E010D561F4FFE01E95695
:102E3000FF4F608171818281938120E030E04AEF11
:102E400054E40E941F02DC01CB01F80180839183CE
:102E5000A283B383FE01ED56FF4F608171818281B1
:102E6000938120E030E040E85FE30E94790388230B
:102E700044F4FE01EF56FF4F81E090E091838083A0
:102E800064C0FE01ED56FF4F6081718182819381A4
:102E900020E03FEF4FE757E40E94190318160CF0AB
:102EA00043C0FE01E956FF4F6081718182819381A9
:102EB00020E030E040E251E40E941F02DC01CB013F
:102EC0008E010F561F4FBC01CD010E944900DC014D
:102ED000CB01F801918380831FC0FE01E157FF4FB2
:102EE00088EC90E091838083FE01E157FF4F808161
:102EF00091810197F1F7FE01E157FF4F91838083A4
:102F0000DE01AF56BF4FFE01EF56FF4F808191812A
:102F1000019711969C938E93FE01EF56FF4F80818F
:102F200091810097D1F627C08E010F561F4FFE01E9
:102F3000ED56FF4F60817181828193810E9449002B
:102F4000DC01CB01F80191838083DE01A357BF4FE1
:102F5000FE01EF56FF4F808191818D939C93FE017E
:102F6000E357FF4F808191810197F1F7FE01E3570D
:102F7000FF4F918380830E941914CEC6FE01E5564F
:102F8000FF4F80810E94F8228CEA90E00E949C23EF
:102F900083E062E00E94D7158FEC90E00E949C23B2
:102FA00081EE90E00E94A114FE01E757FF4F80E000
:102FB00090E0AAEFB3E480839183A283B3838E0170
:102FC0000B571F4FFE01E757FF4F608171818281D0
:102FD000938120E030E04AEF54E40E941F02DC01BC
:102FE000CB01F80180839183A283B383FE01EB5769
:102FF000FF4F608171818281938120E030E040E861
:103000005FE30E947903882344F4FE01ED57FF4FEC
:1030100081E090E09183808364C0FE01EB57FF4F15
:10302000608171818281938120E03FEF4FE757E417
:103030000E94190318160CF043C0FE01E757FF4F1A
:10304000608171818281938120E030E040E251E42F
:103050000E941F02DC01CB018E010D571F4FBC01E6
:10306000CD010E944900DC01CB01F80191838083EE
:103070001FC0FE01EF57FF4F88EC90E091838083E3
:10308000FE01EF57FF4F808191810197F1F7FE011B
:10309000EF57FF4F91838083DE01AD57BF4FFE0195
:1030A000ED57FF4F80819181019711969C938E93EC
:1030B000FE01ED57FF4F808191810097D1F627C027
:1030C0008E010D571F4FFE01EB57FF4F608171813D
:1030D000828193810E944900DC01CB01F801918338
:1030E0008083DE01A158BF4FFE01ED57FF4F808165
:1030F00091818D939C93FE01E158FF4F80819181D6
:103100000197F1F7FE01E158FF4F918380830E9400
:10311000191402C6FE01E556FF4F80810E94F82275
:103120008CEA90E00E949C2383E063E00E94C61535
:1031300081EF90E00E949C2382E091E00E94A11424
:10314000FE01E558FF4F80E090E0AAEFB3E48083F2
:103150009183A283B3838E0109581F4FFE01E55866
:10316000FF4F608171818281938120E030E04AEFDE
:1031700054E40E941F02DC01CB01F801808391839B
:10318000A283B383FE01E958FF4F60817181828180
:10319000938120E030E040E85FE30E9479038823D8
:1031A00044F4FE01EB58FF4F81E090E0918380836F
:1031B00064C0FE01E958FF4F608171818281938173
:1031C00020E03FEF4FE757E40E94190318160CF078
:1031D00043C0FE01E558FF4F608171818281938178
:1031E00020E030E040E251E40E941F02DC01CB010C
:1031F0008E010B581F4FBC01CD010E944900DC011C
:10320000CB01F801918380831FC0FE01ED58FF4F71
:1032100088EC90E091838083FE01ED58FF4F808120
:1032200091810197F1F7FE01ED58FF4F9183808363
:10323000DE01AB58BF4FFE01EB58FF4F80819181FB
:10324000019711969C938E93FE01EB58FF4F80815E
:1032500091810097D1F627C08E010B581F4FFE01B8
:10326000E958FF4F60817181828193810E944900FA
:10327000DC01CB01F80191838083DE01AF58BF4FA1
:10328000FE01EB58FF4F808191818D939C93FE014D
:10329000EF58FF4F808191810197F1F7FE01EF58C0
:1032A000FF4F918380830E94191436C5FE01E556B5
:1032B000FF4F80810E94F8228CEA90E00E949C23BC
:1032C00083E063E00E94D71581E191E00E949C2396
:1032D00081EE90E00E94A114FE01E359FF4F80E0CF
:1032E00090E0AAEFB3E480839183A283B3838E013D
:1032F00007591F4FFE01E359FF4F608171818281A1
:10330000938120E030E04AEF54E40E941F02DC0188
:10331000CB01F80180839183A283B383FE01E75937
:10332000FF4F608171818281938120E030E040E82D
:103330005FE30E947903882344F4FE01E959FF4FBB
:1033400081E090E09183808364C0FE01E759FF4FE4
:10335000608171818281938120E03FEF4FE757E4E4
:103360000E94190318160CF043C0FE01E359FF4FE9
:10337000608171818281938120E030E040E251E4FC
:103380000E941F02DC01CB018E0109591F4FBC01B5
:10339000CD010E944900DC01CB01F80191838083BB
:1033A0001FC0FE01EB59FF4F88EC90E091838083B2
:1033B000FE01EB59FF4F808191810197F1F7FE01EA
:1033C000EB59FF4F91838083DE01A959BF4FFE0166
:1033D000E959FF4F80819181019711969C938E93BB
:1033E000FE01E959FF4F808191810097D1F627C0F6
:1033F0008E0109591F4FFE01E759FF4F608171810E
:10340000828193810E944900DC01CB01F801918304
:103410008083DE01AD59BF4FFE01E959FF4F808126
:1034200091818D939C93FE01ED59FF4F8081918195
:103430000197F1F7FE01ED59FF4F918380830E94C0
:1034400019146AC4FE01E556FF4F80810E94F822DC
:103450008CEA90E00E949C2383E064E00E94C61501
:1034600083E291E00E949C2384E391E00E94A114F6
:10347000FE01E15AFF4F80E090E0AAEFB3E48083C1
:103480009183A283B3838E01055A1F4FFE01E15A37
:10349000FF4F608171818281938120E030E04AEFAB
:1034A00054E40E941F02DC01CB01F8018083918368
:1034B000A283B383FE01E55AFF4F6081718182814F
:1034C000938120E030E040E85FE30E9479038823A5
:1034D00044F4FE01E75AFF4F81E090E0918380833E
:1034E00064C0FE01E55AFF4F608171818281938142
:1034F00020E03FEF4FE757E40E94190318160CF045
:1035000043C0FE01E15AFF4F608171818281938146
:1035100020E030E040E251E40E941F02DC01CB01D8
:103520008E01075A1F4FBC01CD010E944900DC01EA
:10353000CB01F801918380831FC0FE01E95AFF4F40
:1035400088EC90E091838083FE01E95AFF4F8081EF
:1035500091810197F1F7FE01E95AFF4F9183808332
:10356000DE01A75ABF4FFE01E75AFF4F80819181CC
:10357000019711969C938E93FE01E75AFF4F80812D
:1035800091810097D1F627C08E01075A1F4FFE0187
:10359000E55AFF4F60817181828193810E944900C9
:1035A000DC01CB01F80191838083DE01AB5ABF4F70
:1035B000FE01E75AFF4F808191818D939C93FE011C
:1035C000EB5AFF4F808191810197F1F7FE01EB5A91
:1035D000FF4F918380830E9419149EC3FE01E5561C
:1035E000FF4F80810E94F8228CEA90E00E949C2389
:1035F00083E064E00E94D71583E491E00E949C235D
:1036000085E591E00E94A114FE01EF5AFF4F80E092
:1036100090E0AAEFB3E480839183A283B3838E0109
:10362000035B1F4FFE01EF5AFF4F60817181828162
:10363000938120E030E04AEF54E40E941F02DC0155
:10364000CB01F80180839183A283B383FE01E35B06
:10365000FF4F608171818281938120E030E040E8FA
:103660005FE30E947903882344F4FE01E55BFF4F8A
:1036700081E090E09183808364C0FE01E35BFF4FB3
:10368000608171818281938120E03FEF4FE757E4B1
:103690000E94190318160CF043C0FE01EF5AFF4FA9
:1036A000608171818281938120E030E040E251E4C9
:1036B0000E941F02DC01CB018E01055B1F4FBC0184
:1036C000CD010E944900DC01CB01F8019183808388
:1036D0001FC0FE01E75BFF4F88EC90E09183808381
:1036E000FE01E75BFF4F808191810197F1F7FE01B9
:1036F000E75BFF4F91838083DE01A55BBF4FFE0137
:10370000E55BFF4F80819181019711969C938E9389
:10371000FE01E55BFF4F808191810097D1F627C0C4
:103720008E01055B1F4FFE01E35BFF4F60817181DE
:10373000828193810E944900DC01CB01F8019183D1
:103740008083DE01A95BBF4FFE01E55BFF4F8081F7
:1037500091818D939C93FE01E95BFF4F8081918164
:103760000197F1F7FE01E95BFF4F918380830E948F
:103770001914D2C2FE01E556FF4F80810E94F82243
:103780008CEA90E00E949C2383E066E00E94C615CC
:1037900085E691E00E949C2386E791E00E94A114B7
:1037A000FE01ED5BFF4F80E090E0AAEFB3E4808381
:1037B0009183A283B3838E01015C1F4FFE01ED5BF9
:1037C000FF4F608171818281938120E030E04AEF78
:1037D00054E40E941F02DC01CB01F8018083918335
:1037E000A283B383FE01FF96608171818281938100
:1037F00020E030E040E85FE30E94790388232CF466
:1038000081E090E09EAF8DAF46C0FE01FF966081E3
:1038100071818281938120E03FEF4FE757E40E945E
:103820001903181664F5FE01ED5BFF4F608171818D
:103830008281938120E030E040E251E40E941F0247
:10384000DC01CB01BC01CD010E944900DC01CB01B0
:103850009EAF8DAF0FC088EC90E09CAF8BAF8BAD6F
:103860009CAD0197F1F79CAF8BAF8DAD9EAD0197ED
:103870009EAF8DAF8DAD9EAD009769F716C0FE016E
:10388000FF9660817181828193810E944900DC01F1
:10389000CB019EAF8DAF8DAD9EAD9AAF89AF89AD97
:1038A0009AAD0197F1F79AAF89AF0E94191434C20B
:1038B000FE01E556FF4F80810E94F8228CEA90E0DD
:1038C0000E949C2383E066E00E94D71585E891E082
:1038D0000E949C2387E991E00E94A11480E090E07F
:1038E000AAEFB3E48DAB9EABAFABB8AF6DA97EA929
:1038F0008FA998AD20E030E04AEF54E40E941F0207
:10390000DC01CB0189AB9AABABABBCAB69A97AA9A3
:103910008BA99CA920E030E040E85FE30E94790396
:1039200088232CF481E090E098AB8FA73FC069A971
:103930007AA98BA99CA920E03FEF4FE757E40E94AA
:10394000190318164CF56DA97EA98FA998AD20E032
:1039500030E040E251E40E941F02DC01CB01BC01D7
:10396000CD010E944900DC01CB0198AB8FA70FC0AD
:1039700088EC90E09EA78DA78DA59EA50197F1F7F5
:103980009EA78DA78FA598A9019798AB8FA78FA504
:1039900098A9009769F714C069A97AA98BA99CA96D
:1039A0000E944900DC01CB0198AB8FA78FA598A995
:1039B0009CA78BA78BA59CA50197F1F79CA78BA72C
:1039C0000E941914A9C1FE01E556FF4F80810E9493
:1039D000F8228CEA90E00E949C2388EE93E00E94FB
:1039E000022187EA91E00E949C2388EB91E00E94EB
:1039F000A11480E090E0AAEFB3E48FA398A7A9A751
:103A0000BAA76FA178A589A59AA520E030E04AEF72
:103A100054E40E941F02DC01CB018BA39CA3ADA345
:103A2000BEA36BA17CA18DA19EA120E030E040E867
:103A30005FE30E94790388232CF481E090E09AA34D
:103A400089A33FC06BA17CA18DA19EA120E03FEF87
:103A50004FE757E40E94190318164CF56FA178A59B
:103A600089A59AA520E030E040E251E40E941F02BF
:103A7000DC01CB01BC01CD010E944900DC01CB017E
:103A80009AA389A30FC088EC90E098A38F8F8F8DA5
:103A900098A10197F1F798A38F8F89A19AA1019717
:103AA0009AA389A389A19AA1009769F714C06BA171
:103AB0007CA18DA19EA10E944900DC01CB019AA3AB
:103AC00089A389A19AA19E8F8D8F8D8D9E8D01973F
:103AD000F1F79E8F8D8F0E9419141EC1FE01E556CD
:103AE000FF4F80810E94F8228CEA90E00E949C2384
:103AF00080ED97E00E94022187EC91E00E949C23D8
:103B000089ED91E00E94A11480E090E0AAEFB3E477
:103B1000898F9A8FAB8FBC8F698D7A8D8B8D9C8DA1
:103B200020E030E04AEF54E40E941F02DC01CB01A8
:103B30008D8B9E8BAF8BB88F6D897E898F89988D89
:103B400020E030E040E85FE30E94790388232CF412
:103B500081E090E09C8B8B8B3FC06D897E898F8943
:103B6000988D20E03FEF4FE757E40E9419031816A5
:103B70004CF5698D7A8D8B8D9C8D20E030E040E294
:103B800051E40E941F02DC01CB01BC01CD010E9467
:103B90004900DC01CB019C8B8B8B0FC088EC90E043
:103BA0009A8B898B89899A890197F1F79A8B898BEE
:103BB0008B899C8901979C8B8B8B8B899C89009727
:103BC00069F714C06D897E898F89988D0E9449009C
:103BD000DC01CB019C8B8B8B8B899C89988B8F878D
:103BE0008F8598890197F1F7988B8F870E94191418
:103BF00093C081E063E041E00E94050AFE01E556C2
:103C0000FF4F80810E94F8228CEA90E00E949C2362
:103C100089EE91E00E949C238DE092E00E94A11425
:103C200080E10E94942080E090E0AAEFB3E48B87CB
:103C30009C87AD87BE876B857C858D859E8520E0C2
:103C400030E04AEF54E40E941F02DC01CB018F8375
:103C50009887A987BA876F81788589859A8520E0BA
:103C600030E040E85FE30E94790388232CF481E090
:103C700090E09E838D833FC06F81788589859A858A
:103C800020E03FEF4FE757E40E94190318164CF568
:103C90006B857C858D859E8520E030E040E251E497
:103CA0000E941F02DC01CB01BC01CD010E94490032
:103CB000DC01CB019E838D830FC088EC90E09C8358
:103CC0008B838B819C810197F1F79C838B838D8102
:103CD0009E8101979E838D838D819E81009769F7D8
:103CE00014C06F81788589859A850E944900DC011E
:103CF000CB019E838D838D819E819A838983898167
:103D00009A810197F1F79A83898381E063E040E02B
:103D10000E94050A0E941914C156DF4F0FB6F8948D
:103D2000DEBF0FBECDBFCF91DF911F910F910895E0
:103D3000DF93CF93CDB7DEB78BE192E00E949C2357
:103D400085E692E00E949C238FEA92E00E949C23E9
:103D500087EF92E00E949C2381E493E00E949C23E1
:103D6000CF91DF910895DF93CF93CDB7DEB72E9734
:103D70000FB6F894DEBF0FBECDBF85E893E00E947A
:103D80009C2389EA93E00E94A11480E090E0AAEFCE
:103D9000B4E48B879C87AD87BE876B857C858D85DA
:103DA0009E8520E030E04AEF54E40E941F02DC01CF
:103DB000CB018F839887A987BA876F81788589859A
:103DC0009A8520E030E040E85FE30E947903882391
:103DD0002CF481E090E09E838D833FC06F817885D5
:103DE00089859A8520E03FEF4FE757E40E94190349
:103DF00018164CF56B857C858D859E8520E030E01E
:103E000040E251E40E941F02DC01CB01BC01CD0164
:103E10000E944900DC01CB019E838D830FC088EC9A
:103E200090E09C838B838B819C810197F1F79C832D
:103E30008B838D819E8101979E838D838D819E8151
:103E4000009769F714C06F81788589859A850E94EB
:103E50004900DC01CB019E838D838D819E819A83F5
:103E6000898389819A810197F1F79A8389830E94D6
:103E700019142E960FB6F894DEBF0FBECDBFCF91AA
:103E8000DF910895DF93CF93CDB7DEB72E970FB6AE
:103E9000F894DEBF0FBECDBF89EB93E00E949C2358
:103EA00082EF93E00E94A11480E090E0AAEFB3E4D7
:103EB0008B879C87AD87BE876B857C858D859E852E
:103EC00020E030E04AEF54E40E941F02DC01CB0105
:103ED0008F839887A987BA876F81788589859A8526
:103EE00020E030E040E85FE30E94790388232CF46F
:103EF00081E090E09E838D833FC06F8178858985C6
:103F00009A8520E03FEF4FE757E40E941903181607
:103F10004CF56B857C858D859E8520E030E040E208
:103F200051E40E941F02DC01CB01BC01CD010E94C3
:103F30004900DC01CB019E838D830FC088EC90E0AB
:103F40009C838B838B819C810197F1F79C838B836E
:103F50008D819E8101979E838D838D819E810097A7
:103F600069F714C06F81788589859A850E94490018
:103F7000DC01CB019E838D838D819E819A83898311
:103F800089819A810197F1F79A8389830E94191494
:103F90002E960FB6F894DEBF0FBECDBFCF91DF9146
:103FA0000895DF93CF9300D00F92CDB7DEB789830A
:103FB00081E063E041E00E94050A89810E9494202B
:103FC0000F900F900F90CF91DF910895DF93CF93D3
:103FD000CDB7DEB781E063E040E00E94050ACF91F3
:103FE000DF910895DF93CF93CDB7DEB7A3E5B0E0BF
:103FF000E3E5F0E0808188608C93A3E5B0E0E3E541
:10400000F0E0808180648C93A9E5B0E0E9E5F0E020
:1040100080818D7F8C93A9E5B0E0E9E5F0E08081B7
:104020008E7F8C93ECE5F0E087EC8083A3E5B0E035
:10403000E3E5F0E08081887C8C93A3E5B0E0E3E5E4
:10404000F0E0808182638C93CF91DF910895DF93BC
:10405000CF930F92CDB7DEB78983E2E5F0E0898197
:1040600080830F90CF91DF910895DF93CF9300D09D
:10407000CDB7DEB79A83898389819A81009731F021
:1040800089819A819093EF048093EE040F900F90B2
:10409000CF91DF9108951F920F920FB60F921124C6
:1040A0002F933F934F935F936F937F938F939F9340
:1040B000AF93BF93EF93FF93DF93CF93CDB7DEB76B
:1040C0008091EE049091EF04009729F0E091EE04C6
:1040D000F091EF040995CF91DF91FF91EF91BF919E
:1040E000AF919F918F917F916F915F914F913F9190
:1040F0002F910F900FBE0F901F901895DF93CF93C5
:1041000000D0CDB7DEB79A83898389819A810097E1
:1041100031F089819A819093F1048093F0040F909B
:104120000F90CF91DF910895DF93CF930F92CDB78A
:10413000DEB78983ECE5F0E0898180830F90CF9131
:10414000DF910895DF93CF93CDB7DEB7A3E5B0E05D
:10415000E3E5F0E08081887F8C93CF91DF91089533
:10416000DF93CF93CDB7DEB7AFE4B0E0EFE4F0E09C
:1041700080818E7F8C93AFE4B0E0EFE4F0E080814B
:1041800082608C93AEE4B0E0EEE4F0E08081886081
:104190008C93AEE4B0E0EEE4F0E0808180618C933B
:1041A000AFE4B0E0EFE4F0E080818F7B8C93AFE48C
:1041B000B0E0EFE4F0E0808180688C93E6E4F0E02A
:1041C0008FE19EE491838083EAE4F0E088EE93E05F
:1041D00091838083AEE4B0E0EEE4F0E080818E7FF6
:1041E0008C93AEE4B0E0EEE4F0E0808182608C93EA
:1041F000AEE4B0E0EEE4F0E080818B7F8C93CF9171
:10420000DF910895DF93CF9300D0CDB7DEB79A83C7
:104210008983EAE4F0E089819A81918380830F9019
:104220000F90CF91DF910895DF93CF93CDB7DEB795
:10423000AEE4B0E0EEE4F0E080818E7F8C93AEE4FB
:10424000B0E0EEE4F0E0808182608C93AEE4B0E018
:10425000EEE4F0E080818B7F8C93CF91DF91089525
:10426000DF93CF9300D0CDB7DEB79A838983ECE498
:10427000F0E089819A81918380830F900F90CF9194
:10428000DF910895DF93CF93CDB7DEB7ECE4F0E094
:1042900080819181CF91DF910895DF93CF930F9229
:1042A000CDB7DEB78983A6E5B0E0E6E5F0E0808132
:1042B00080648C93E0E2F0E082E08083A1E2B0E0F1
:1042C000E1E2F0E080818E7F8C93A1E2B0E0E1E258
:1042D000F0E080818D7F8C938981882329F0E2E250
:1042E000F0E08981880F8083A6E5B0E0E6E5F0E0A4
:1042F000808184608C930F90CF91DF910895DF933C
:10430000CF930F92CDB7DEB78983E2E2F0E08981E7
:10431000880F8083A6E5B0E0E6E5F0E08081806468
:104320008C93A6E5B0E0E6E5F0E0808184608C93B4
:104330000F90CF91DF910895DF93CF930F92CDB778
:10434000DEB71982A6E5B0E0E6E5F0E080818062A4
:104350008C93A6E5B0E0E6E5F0E0808180688C9380
:10436000E6E5F0E080818823DCF7E1E2F0E080819F
:10437000882F90E0887F90708830910511F081E05F
:10438000898389810F90CF91DF910895DF93CF9337
:104390000F92CDB7DEB71982A6E5B0E0E6E5F0E012
:1043A0008081846A8C93E6E5F0E080818823DCF7E5
:1043B000E1E2F0E08081882F90E0887F907080318A
:1043C000910511F082E0898389810F90CF91DF916F
:1043D0000895DF93CF9300D0CDB7DEB78A831982DB
:1043E000E3E2F0E08A81880F8083A3E2B0E0E3E2B9
:1043F000F0E080818E7F8C93A6E5B0E0E6E5F0E00A
:1044000080818F7D8C93A6E5B0E0E6E5F0E08081C9
:1044100080688C93E6E5F0E080818823DCF7E1E2B8
:10442000F0E08081882F90E0887F9070883191053E
:1044300011F083E0898389810F900F90CF91DF91F4
:104440000895DF93CF9300D0CDB7DEB78A8319826A
:10445000E3E2F0E08A81880F8083A3E2B0E0E3E248
:10446000F0E0808181608C93A6E5B0E0E6E5F0E0C5
:1044700080818F7D8C93A6E5B0E0E6E5F0E0808159
:1044800080688C93E6E5F0E080818823DCF7E1E248
:10449000F0E08081882F90E0887F907080349105D3
:1044A00011F084E0898389810F900F90CF91DF9183
:1044B0000895DF93CF9300D0CDB7DEB78A831982FA
:1044C000E3E2F0E08A818083A6E5B0E0E6E5F0E093
:1044D000808180688C93E6E5F0E080818823DCF7BA
:1044E000E1E2F0E08081882F90E0887F9070883250
:1044F000910511F085E0898389810F900F90CF910C
:10450000DF910895DF93CF9300D00F92CDB7DEB740
:104510009B838A831982A6E5B0E0E6E5F0E080811E
:1045200080688C93E6E5F0E080818823DCF7E1E2A7
:10453000F0E08081882F90E0887F90708035910531
:1045400019F086E0898306C0E3E2F0E08081EA8129
:10455000FB81808389810F900F900F90CF91DF9125
:104560000895DF93CF93CDB7DEB7A6E5B0E0E6E5DB
:10457000F0E0808180618C93A6E5B0E0E6E5F0E0B4
:10458000808180688C93CF91DF910895DF93CF93E2
:1045900000D0CDB7DEB783E390E09A838983E9E268
:1045A000F0E089818083E0E4F0E089819A81892FBD
:1045B00099278083AAE2B0E0EAE2F0E080818B7F75
:1045C0008C93E0E4F0E086E88083AAE2B0E0EAE2DF
:1045D000F0E0808188608C93AAE2B0E0EAE2F0E04B
:1045E000808180618C930F900F90CF91DF9108951F
:1045F000DF93CF930F92CDB7DEB78983EBE2F0E084
:104600008081829586958770882F90E08170907068
:104610000097A1F3ECE2F0E089818083EBE2F0E027
:104620008081829586958770882F90E08170907048
:104630000097A1F3ABE2B0E0EBE2F0E080818064B0
:104640008C930F90CF91DF910895DF93CF9300D09B
:1046500000D00F92CDB7DEB78D8319821A821B82EC
:104660001C8217C089819A81AB81BC810196A11DF2
:10467000B11D89839A83AB83BC8389819A81AB8185
:10468000BC81883823E1920720E0A20720E0B2072E
:1046900061F0EBE2F0E08081829586958770882F4B
:1046A00090E0817090700097E9F289819A81AB81E6
:1046B000BC81883823E1920720E0A20720E0B207FE
:1046C00099F119821A821B821C82ECE2F0E08D8142
:1046D000808317C089819A81AB81BC810196A11D1D
:1046E000B11D89839A83AB83BC8389819A81AB8115
:1046F000BC81883823E1920720E0A20720E0B207BE
:1047000061F0EBE2F0E08081829586958770882FDA
:1047100090E0817090700097E9F2ABE2B0E0EBE2DC
:10472000F0E0808180648C930F900F900F900F9039
:104730000F90CF91DF910895DF93CF9300D0CDB745
:10474000DEB79A8389830BC0E981FA812081898150
:104750009A8101969A838983822F0E942523E98179
:10476000FA818081882381F70F900F90CF91DF919C
:104770000895DF93CF930F92CDB7DEB78983EBE235
:10478000F0E08081829586958770882F90E0817017
:104790009070882321F0ECE2F0E0898180830F9013
:1047A000CF91DF910895DF93CF9300D000D0CDB7A4
:1047B000DEB79C838B8319820E9401248A838B81BC
:1047C0009C810097B9F013C08A810E94B923898126
:1047D000282F30E08B819C81FC01E20FF31F8A813E
:1047E000808389818F5F89830E9401248A838A81E3
:1047F0008D3051F70F900F900F900F90CF91DF9168
:104800000895DF93CF93CDB7DEB7EBE2F0E0808180
:104810008823DCF7ECE2F0E08081CF91DF9108950E
:10482000DF93CF93CDB7DEB7ECE2F0E08081CF919C
:10483000DF910895DF93CF9300D00F92CDB7DEB70D
:104840008FEF8B831A8219820BC089819A8101961E
:104850009A83898389819A8123E18838920729F094
:10486000EBE2F0E08081882384F789819A8123E15B
:104870008838920721F0ECE2F0E080818B838B8115
:104880000F900F900F90CF91DF910895DF93CF930A
:10489000CDB7DEB72B970FB6F894DEBF0FBECDBFF6
:1048A000688779878A879B871F821E821D8281E0A5
:1048B00090E0A0E0B0E089839A83AB83BC838885D5
:1048C0009985AA85BB850097A105B10509F47BC030
:1048D00042C088859985AA85BB852AE030E040E002
:1048E00050E0BC01CD010E94C925DC01CB018E83C3
:1048F00089819A81AB81BC812AE030E040E050E0C0
:10490000BC01CD010E94AA259B01AC018E81882F9C
:1049100090E0A0E0B0E0820F931FA41FB51F898331
:104920009A83AB83BC8388859985AA85BB852AE059
:1049300030E040E050E0BC01CD010E94C925DA0121
:10494000C90188879987AA87BB878F818F5F8F83EB
:104950008D818F5F8D8388859985AA85BB8500971A
:10496000A105B10509F0B5CF1F8228C089819A81C0
:10497000AB81BC812AE030E040E050E0BC01CD01D9
:104980000E94C925DC01CB018E8389819A81AB818C
:10499000BC812AE030E040E050E0BC01CD010E9443
:1049A000C925DA01C90189839A83AB83BC838E81CF
:1049B000805D0E94B9238F818F5F8F839F818D815E
:1049C0009817A0F203C080E30E94B9232B960FB67C
:1049D000F894DEBF0FBECDBFCF91DF910895DF9376
:1049E000CF9300D00F92CDB7DEB789837B836A83E4
:1049F0008981833080F48A819B81009761F089816D
:104A0000882F90E0880F991FFC01EE50FB4F8A81A0
:104A10009B81918380830F900F900F90CF91DF91B6
:104A200008951F920F920FB60F9211242F933F9368
:104A30004F935F936F937F938F939F93AF93BF93A6
:104A4000EF93FF93DF93CF93CDB7DEB78091F2045E
:104A50009091F304009729F0E091F204F091F304AF
:104A60000995CF91DF91FF91EF91BF91AF919F9108
:104A70008F917F916F915F914F913F912F910F9007
:104A80000FBE0F901F9018951F920F920FB60F92A6
:104A900011242F933F934F935F936F937F938F9343
:104AA0009F93AF93BF93EF93FF93DF93CF93CDB7D4
:104AB000DEB78091F4049091F504009729F0E0911D
:104AC000F404F091F5040995CF91DF91FF91EF91F6
:104AD000BF91AF919F918F917F916F915F914F9116
:104AE0003F912F910F900FBE0F901F9018951F921E
:104AF0000F920FB60F9211242F933F934F935F9312
:104B00006F937F938F939F93AF93BF93EF93FF9395
:104B1000DF93CF93CDB7DEB78091F6049091F70481
:104B2000009729F0E091F604F091F7040995CF91F0
:104B3000DF91FF91EF91BF91AF919F918F917F9105
:104B40006F915F914F913F912F910F900FBE0F90FA
:104B50001F901895629FD001739FF001829FE00D16
:104B6000F11D649FE00DF11D929FF00D839FF00DEC
:104B7000749FF00D659FF00D9927729FB00DE11D98
:104B8000F91F639FB00DE11DF91FBD01CF01112475
:104B90000895A1E21A2EAA1BBB1BFD010DC0AA1F7E
:104BA000BB1FEE1FFF1FA217B307E407F50720F096
:104BB000A21BB30BE40BF50B661F771F881F991F11
:104BC0001A9469F760957095809590959B01AC015A
:104BD000BD01CF0108952F923F924F925F926F9245
:104BE0007F928F929F92AF92BF92CF92DF92EF927D
:104BF000FF920F931F93CF93DF93CDB7DEB7CA1BFE
:104C0000DB0B0FB6F894DEBF0FBECDBF09942A8828
:104C1000398848885F846E847D848C849B84AA84D0
:104C2000B984C884DF80EE80FD800C811B81AA815D
:104C3000B981CE0FD11D0FB6F894DEBF0FBECDBF28
:104C4000ED010895FB01DC018D91019080190110A7
:104C5000D9F3990B0895FC0101900020E9F78095A4
:0C4C600090958E0F9F1F0895F894FFCFD1
:104C6C00416363657373204772616E7465642100E0
:104C7C000D0A456E74657220757365726E616D6593
:104C8C003A20000D0A456E7465722070617373775B
:104C9C006F72643A20000D0A416363657373204799
:104CAC0072616E746564210D0A0D0A000D0A004CC8
:104CBC006967687420524F4F4D31204F4E0D0A00DA
:104CCC004C6967687420524F4F4D31204F4E004C49
:104CDC006967687420524F4F4D31204F46460D0A7C
:104CEC00004C6967687420524F4F4D32204F464636
:104CFC00004C6967687420524F4F4D32204F4E0D57
:104D0C000A004C6967687420524F4F4D32204F4E49
:104D1C00004C6967687420524F4F4D32204F464605
:104D2C000D0A004C6967687420524F4F4D33204F69
:104D3C004E0D0A004C6967687420524F4F4D33205A
:104D4C004F4E004C6967687420524F4F4D33204FC3
:104D5C0046460D0A004C6967687420524F4F4D331C
:104D6C00204F4646004C6967687420524F4F4D34B3
:104D7C00204F4E0D0A004C6967687420524F4F4DFE
:104D8C0034204F4E004C6967687420524F4F4D349D
:104D9C00204F46460D0A004C6967687420524F4FED
:104DAC004D34204F464600446F6F72204973204F9C
:104DBC0070656E65640D0A00446F6F722049732034
:104DCC004F70656E656400446F6F722049732043A9
:104DDC006C6F6F7365640D0A00446F6F72204973BA
:104DEC0020436C6F6F736564004974732077726F26
:104DFC006E672063686F697320706C6561736520E2
:104E0C0074727920616761696E2E0D0A0057726F9A
:104E1C006E672063686F69732121000D0A0D0A54B7
:104E2C006F205475726E204F4E2074686520466951
:104E3C00727374526F6F6D20507265737320310DE5
:104E4C000A546F205475726E204F46462074686564
:104E5C00204669727374526F6F6D20507265737354
:104E6C0020320D0A000D0A546F205475726E204FBB
:104E7C004E20746865205365636F6E64526F6F6D5E
:104E8C0020507265737320330D0A546F2054757261
:104E9C006E204F464620746865205365636F6E64C0
:104EAC00526F6F6D20507265737320340D0A000DB4
:104EBC000A546F205475726E204F4E207468652012
:104ECC005468697264526F6F6D20507265737320F1
:104EDC00350D0A546F205475726E204F464620745F
:104EEC006865205468697264526F6F6D20507265EA
:104EFC00737320360D0A000D0A546F205475726EB0
:104F0C00204F4E2074686520466F75727468526F1E
:104F1C006F6D20507265737320370D0A546F2054D7
:104F2C0075726E204F46462074686520466F757208
:104F3C007468526F6F6D20507265737320380D0A50
:104F4C00000D0A546F204F70656E20546865204424
:104F5C006F6F72205072657373206F206F72204FC9
:104F6C000D0A546F20436C6F7365205468652044A0
:104F7C006F6F722050726573732063206F722043C1
:104F8C000D0A0D0A0057656C636F6D6520746F20F8
:104F9C0074686520536D61727420486F6D65205381
:104FAC00797374656D210D0A0057656C636F6D65BF
:104FBC0020486F6D652E2E2E000D0A0D0A55736557
:104FCC00726E616D65204F722050617373776F72D2
:104FDC006420696E636F72726563742E506C6561C8
:104FEC0073652074727920616761696E2E0D0A0DEC
:104FFC000A004163636573732044656E69656421BF
:10500C0000000000000000000075736572300000A5
:10501C00000000000000000000003030303000754F
:10502C0073657231000000000000000000000000F9
:10503C0031313131007573657232000000000000AF
:10504C00000000000000323232320075736572339A
:10505C000000000000000000000000003333333378
:10506C000075736572340000000000000000000041
:10507C000000343434340075736572350000000060
:10508C0000000000000000003535353500757365F3
:10509C0072360000000000000000000000003636F0
:1050AC003636007573657237000000000000000092
:1050BC000000000037373737007573657238000011
:1050CC00000000000000000000003838383800757F
:1050DC007365723900000000000000000000000041
:0850EC003939393900FF0300D6
:00000001FF
